{
	"Authentification.sol": {
		"Authentification": {
			"abi": [
				{
					"inputs": [],
					"stateMutability": "nonpayable",
					"type": "constructor"
				},
				{
					"anonymous": false,
					"inputs": [
						{
							"indexed": true,
							"internalType": "address",
							"name": "UserAddress",
							"type": "address"
						},
						{
							"indexed": false,
							"internalType": "string",
							"name": "role",
							"type": "string"
						},
						{
							"indexed": false,
							"internalType": "string",
							"name": "name",
							"type": "string"
						}
					],
					"name": "UserAdded",
					"type": "event"
				},
				{
					"anonymous": false,
					"inputs": [
						{
							"indexed": true,
							"internalType": "address",
							"name": "UserAddress",
							"type": "address"
						}
					],
					"name": "UserRemoved",
					"type": "event"
				},
				{
					"inputs": [
						{
							"internalType": "address",
							"name": "_userAddress",
							"type": "address"
						},
						{
							"internalType": "string",
							"name": "_role",
							"type": "string"
						},
						{
							"internalType": "string",
							"name": "_name",
							"type": "string"
						}
					],
					"name": "addUser",
					"outputs": [],
					"stateMutability": "nonpayable",
					"type": "function"
				},
				{
					"inputs": [
						{
							"internalType": "address",
							"name": "_userAddress",
							"type": "address"
						}
					],
					"name": "getUserRole",
					"outputs": [
						{
							"internalType": "string",
							"name": "",
							"type": "string"
						}
					],
					"stateMutability": "view",
					"type": "function"
				},
				{
					"inputs": [
						{
							"internalType": "address",
							"name": "_userAddress",
							"type": "address"
						},
						{
							"internalType": "string",
							"name": "_role",
							"type": "string"
						}
					],
					"name": "isAuthorized",
					"outputs": [
						{
							"internalType": "bool",
							"name": "",
							"type": "bool"
						}
					],
					"stateMutability": "view",
					"type": "function"
				},
				{
					"inputs": [
						{
							"internalType": "address",
							"name": "_userAddress",
							"type": "address"
						},
						{
							"internalType": "string",
							"name": "_role",
							"type": "string"
						}
					],
					"name": "isUserInRole",
					"outputs": [
						{
							"internalType": "bool",
							"name": "",
							"type": "bool"
						}
					],
					"stateMutability": "view",
					"type": "function"
				},
				{
					"inputs": [],
					"name": "owner",
					"outputs": [
						{
							"internalType": "address",
							"name": "",
							"type": "address"
						}
					],
					"stateMutability": "view",
					"type": "function"
				},
				{
					"inputs": [
						{
							"internalType": "address",
							"name": "_userAddress",
							"type": "address"
						}
					],
					"name": "removeUser",
					"outputs": [],
					"stateMutability": "nonpayable",
					"type": "function"
				},
				{
					"inputs": [
						{
							"internalType": "address",
							"name": "",
							"type": "address"
						}
					],
					"name": "users",
					"outputs": [
						{
							"internalType": "string",
							"name": "role",
							"type": "string"
						},
						{
							"internalType": "string",
							"name": "name",
							"type": "string"
						},
						{
							"internalType": "bool",
							"name": "exists",
							"type": "bool"
						}
					],
					"stateMutability": "view",
					"type": "function"
				}
			],
			"devdoc": {
				"kind": "dev",
				"methods": {},
				"version": 1
			},
			"evm": {
				"assembly": "    /* \"Authentification.sol\":62:1926  contract Authentification {\r... */\n  mstore(0x40, 0x80)\n    /* \"Authentification.sol\":394:448  constructor() {\r... */\n  callvalue\n  dup1\n  iszero\n  tag_1\n  jumpi\n  0x00\n  dup1\n  revert\ntag_1:\n  pop\n    /* \"Authentification.sol\":427:437  msg.sender */\n  caller\n    /* \"Authentification.sol\":419:424  owner */\n  0x01\n  0x00\n    /* \"Authentification.sol\":419:437  owner = msg.sender */\n  0x0100\n  exp\n  dup2\n  sload\n  dup2\n  0xffffffffffffffffffffffffffffffffffffffff\n  mul\n  not\n  and\n  swap1\n  dup4\n  0xffffffffffffffffffffffffffffffffffffffff\n  and\n  mul\n  or\n  swap1\n  sstore\n  pop\n    /* \"Authentification.sol\":62:1926  contract Authentification {\r... */\n  dataSize(sub_0)\n  dup1\n  dataOffset(sub_0)\n  0x00\n  codecopy\n  0x00\n  return\nstop\n\nsub_0: assembly {\n        /* \"Authentification.sol\":62:1926  contract Authentification {\r... */\n      mstore(0x40, 0x80)\n      callvalue\n      dup1\n      iszero\n      tag_1\n      jumpi\n      0x00\n      dup1\n      revert\n    tag_1:\n      pop\n      jumpi(tag_2, lt(calldatasize, 0x04))\n      shr(0xe0, calldataload(0x00))\n      dup1\n      0x8da5cb5b\n      gt\n      tag_10\n      jumpi\n      dup1\n      0x8da5cb5b\n      eq\n      tag_6\n      jumpi\n      dup1\n      0x98575188\n      eq\n      tag_7\n      jumpi\n      dup1\n      0xa87430ba\n      eq\n      tag_8\n      jumpi\n      dup1\n      0xd7554a68\n      eq\n      tag_9\n      jumpi\n      jump(tag_2)\n    tag_10:\n      dup1\n      0x0f0aff1b\n      eq\n      tag_3\n      jumpi\n      dup1\n      0x19c3026f\n      eq\n      tag_4\n      jumpi\n      dup1\n      0x27820851\n      eq\n      tag_5\n      jumpi\n    tag_2:\n      0x00\n      dup1\n      revert\n        /* \"Authentification.sol\":1350:1584  function isUserInRole(address _userAddress, string memory _role) public view userExists(_userAddress) returns (bool) {\r... */\n    tag_3:\n      tag_11\n      0x04\n      dup1\n      calldatasize\n      sub\n      dup2\n      add\n      swap1\n      tag_12\n      swap2\n      swap1\n      tag_13\n      jump\t// in\n    tag_12:\n      tag_14\n      jump\t// in\n    tag_11:\n      mload(0x40)\n      tag_15\n      swap2\n      swap1\n      tag_16\n      jump\t// in\n    tag_15:\n      mload(0x40)\n      dup1\n      swap2\n      sub\n      swap1\n      return\n        /* \"Authentification.sol\":1592:1923  function isAuthorized(address _userAddress, string memory _role) public view userExists(_userAddress) returns (bool) {\r... */\n    tag_4:\n      tag_17\n      0x04\n      dup1\n      calldatasize\n      sub\n      dup2\n      add\n      swap1\n      tag_18\n      swap2\n      swap1\n      tag_13\n      jump\t// in\n    tag_18:\n      tag_19\n      jump\t// in\n    tag_17:\n      mload(0x40)\n      tag_20\n      swap2\n      swap1\n      tag_16\n      jump\t// in\n    tag_20:\n      mload(0x40)\n      dup1\n      swap2\n      sub\n      swap1\n      return\n        /* \"Authentification.sol\":1188:1342  function getUserRole(address _userAddress) public view userExists(_userAddress) returns (string memory) {\r... */\n    tag_5:\n      tag_21\n      0x04\n      dup1\n      calldatasize\n      sub\n      dup2\n      add\n      swap1\n      tag_22\n      swap2\n      swap1\n      tag_23\n      jump\t// in\n    tag_22:\n      tag_24\n      jump\t// in\n    tag_21:\n      mload(0x40)\n      tag_25\n      swap2\n      swap1\n      tag_26\n      jump\t// in\n    tag_25:\n      mload(0x40)\n      dup1\n      swap2\n      sub\n      swap1\n      return\n        /* \"Authentification.sol\":233:253  address public owner */\n    tag_6:\n      tag_27\n      tag_28\n      jump\t// in\n    tag_27:\n      mload(0x40)\n      tag_29\n      swap2\n      swap1\n      tag_30\n      jump\t// in\n    tag_29:\n      mload(0x40)\n      dup1\n      swap2\n      sub\n      swap1\n      return\n        /* \"Authentification.sol\":1010:1180  function removeUser(address _userAddress) public onlyOwner userExists(_userAddress) {\r... */\n    tag_7:\n      tag_31\n      0x04\n      dup1\n      calldatasize\n      sub\n      dup2\n      add\n      swap1\n      tag_32\n      swap2\n      swap1\n      tag_23\n      jump\t// in\n    tag_32:\n      tag_33\n      jump\t// in\n    tag_31:\n      stop\n        /* \"Authentification.sol\":189:226  mapping(address => User) public users */\n    tag_8:\n      tag_34\n      0x04\n      dup1\n      calldatasize\n      sub\n      dup2\n      add\n      swap1\n      tag_35\n      swap2\n      swap1\n      tag_23\n      jump\t// in\n    tag_35:\n      tag_36\n      jump\t// in\n    tag_34:\n      mload(0x40)\n      tag_37\n      swap4\n      swap3\n      swap2\n      swap1\n      tag_38\n      jump\t// in\n    tag_37:\n      mload(0x40)\n      dup1\n      swap2\n      sub\n      swap1\n      return\n        /* \"Authentification.sol\":716:1002  function addUser(address _userAddress, string memory _role, string memory _name) public onlyOwner {\r... */\n    tag_9:\n      tag_39\n      0x04\n      dup1\n      calldatasize\n      sub\n      dup2\n      add\n      swap1\n      tag_40\n      swap2\n      swap1\n      tag_41\n      jump\t// in\n    tag_40:\n      tag_42\n      jump\t// in\n    tag_39:\n      stop\n        /* \"Authentification.sol\":1350:1584  function isUserInRole(address _userAddress, string memory _role) public view userExists(_userAddress) returns (bool) {\r... */\n    tag_14:\n        /* \"Authentification.sol\":1461:1465  bool */\n      0x00\n        /* \"Authentification.sol\":1438:1450  _userAddress */\n      dup3\n        /* \"Authentification.sol\":638:643  users */\n      0x00\n        /* \"Authentification.sol\":638:657  users[_userAddress] */\n      dup1\n        /* \"Authentification.sol\":644:656  _userAddress */\n      dup3\n        /* \"Authentification.sol\":638:657  users[_userAddress] */\n      0xffffffffffffffffffffffffffffffffffffffff\n      and\n      0xffffffffffffffffffffffffffffffffffffffff\n      and\n      dup2\n      mstore\n      0x20\n      add\n      swap1\n      dup2\n      mstore\n      0x20\n      add\n      0x00\n      keccak256\n        /* \"Authentification.sol\":638:664  users[_userAddress].exists */\n      0x02\n      add\n      0x00\n      swap1\n      sload\n      swap1\n      0x0100\n      exp\n      swap1\n      div\n      0xff\n      and\n        /* \"Authentification.sol\":630:688  require(users[_userAddress].exists, \"User does not exist\") */\n      tag_44\n      jumpi\n      mload(0x40)\n      0x08c379a000000000000000000000000000000000000000000000000000000000\n      dup2\n      mstore\n      0x04\n      add\n      tag_45\n      swap1\n      tag_46\n      jump\t// in\n    tag_45:\n      mload(0x40)\n      dup1\n      swap2\n      sub\n      swap1\n      revert\n    tag_44:\n        /* \"Authentification.sol\":1569:1574  _role */\n      dup3\n        /* \"Authentification.sol\":1552:1575  abi.encodePacked(_role) */\n      add(0x20, mload(0x40))\n      tag_48\n      swap2\n      swap1\n      tag_49\n      jump\t// in\n    tag_48:\n      mload(0x40)\n      0x20\n      dup2\n      dup4\n      sub\n      sub\n      dup2\n      mstore\n      swap1\n      0x40\n      mstore\n        /* \"Authentification.sol\":1542:1576  keccak256(abi.encodePacked(_role)) */\n      dup1\n      mload\n      swap1\n      0x20\n      add\n      keccak256\n        /* \"Authentification.sol\":1512:1517  users */\n      0x00\n        /* \"Authentification.sol\":1512:1531  users[_userAddress] */\n      dup1\n        /* \"Authentification.sol\":1518:1530  _userAddress */\n      dup7\n        /* \"Authentification.sol\":1512:1531  users[_userAddress] */\n      0xffffffffffffffffffffffffffffffffffffffff\n      and\n      0xffffffffffffffffffffffffffffffffffffffff\n      and\n      dup2\n      mstore\n      0x20\n      add\n      swap1\n      dup2\n      mstore\n      0x20\n      add\n      0x00\n      keccak256\n        /* \"Authentification.sol\":1512:1536  users[_userAddress].role */\n      0x00\n      add\n        /* \"Authentification.sol\":1495:1537  abi.encodePacked(users[_userAddress].role) */\n      add(0x20, mload(0x40))\n      tag_50\n      swap2\n      swap1\n      tag_51\n      jump\t// in\n    tag_50:\n      mload(0x40)\n      0x20\n      dup2\n      dup4\n      sub\n      sub\n      dup2\n      mstore\n      swap1\n      0x40\n      mstore\n        /* \"Authentification.sol\":1485:1538  keccak256(abi.encodePacked(users[_userAddress].role)) */\n      dup1\n      mload\n      swap1\n      0x20\n      add\n      keccak256\n        /* \"Authentification.sol\":1485:1576  keccak256(abi.encodePacked(users[_userAddress].role)) == keccak256(abi.encodePacked(_role)) */\n      eq\n        /* \"Authentification.sol\":1478:1576  return keccak256(abi.encodePacked(users[_userAddress].role)) == keccak256(abi.encodePacked(_role)) */\n      swap2\n      pop\n        /* \"Authentification.sol\":1350:1584  function isUserInRole(address _userAddress, string memory _role) public view userExists(_userAddress) returns (bool) {\r... */\n      pop\n      swap3\n      swap2\n      pop\n      pop\n      jump\t// out\n        /* \"Authentification.sol\":1592:1923  function isAuthorized(address _userAddress, string memory _role) public view userExists(_userAddress) returns (bool) {\r... */\n    tag_19:\n        /* \"Authentification.sol\":1703:1707  bool */\n      0x00\n        /* \"Authentification.sol\":1680:1692  _userAddress */\n      dup3\n        /* \"Authentification.sol\":638:643  users */\n      0x00\n        /* \"Authentification.sol\":638:657  users[_userAddress] */\n      dup1\n        /* \"Authentification.sol\":644:656  _userAddress */\n      dup3\n        /* \"Authentification.sol\":638:657  users[_userAddress] */\n      0xffffffffffffffffffffffffffffffffffffffff\n      and\n      0xffffffffffffffffffffffffffffffffffffffff\n      and\n      dup2\n      mstore\n      0x20\n      add\n      swap1\n      dup2\n      mstore\n      0x20\n      add\n      0x00\n      keccak256\n        /* \"Authentification.sol\":638:664  users[_userAddress].exists */\n      0x02\n      add\n      0x00\n      swap1\n      sload\n      swap1\n      0x0100\n      exp\n      swap1\n      div\n      0xff\n      and\n        /* \"Authentification.sol\":630:688  require(users[_userAddress].exists, \"User does not exist\") */\n      tag_53\n      jumpi\n      mload(0x40)\n      0x08c379a000000000000000000000000000000000000000000000000000000000\n      dup2\n      mstore\n      0x04\n      add\n      tag_54\n      swap1\n      tag_46\n      jump\t// in\n    tag_54:\n      mload(0x40)\n      dup1\n      swap2\n      sub\n      swap1\n      revert\n    tag_53:\n        /* \"Authentification.sol\":1811:1816  _role */\n      dup3\n        /* \"Authentification.sol\":1794:1817  abi.encodePacked(_role) */\n      add(0x20, mload(0x40))\n      tag_56\n      swap2\n      swap1\n      tag_49\n      jump\t// in\n    tag_56:\n      mload(0x40)\n      0x20\n      dup2\n      dup4\n      sub\n      sub\n      dup2\n      mstore\n      swap1\n      0x40\n      mstore\n        /* \"Authentification.sol\":1784:1818  keccak256(abi.encodePacked(_role)) */\n      dup1\n      mload\n      swap1\n      0x20\n      add\n      keccak256\n        /* \"Authentification.sol\":1754:1759  users */\n      0x00\n        /* \"Authentification.sol\":1754:1773  users[_userAddress] */\n      dup1\n        /* \"Authentification.sol\":1760:1772  _userAddress */\n      dup7\n        /* \"Authentification.sol\":1754:1773  users[_userAddress] */\n      0xffffffffffffffffffffffffffffffffffffffff\n      and\n      0xffffffffffffffffffffffffffffffffffffffff\n      and\n      dup2\n      mstore\n      0x20\n      add\n      swap1\n      dup2\n      mstore\n      0x20\n      add\n      0x00\n      keccak256\n        /* \"Authentification.sol\":1754:1778  users[_userAddress].role */\n      0x00\n      add\n        /* \"Authentification.sol\":1737:1779  abi.encodePacked(users[_userAddress].role) */\n      add(0x20, mload(0x40))\n      tag_57\n      swap2\n      swap1\n      tag_51\n      jump\t// in\n    tag_57:\n      mload(0x40)\n      0x20\n      dup2\n      dup4\n      sub\n      sub\n      dup2\n      mstore\n      swap1\n      0x40\n      mstore\n        /* \"Authentification.sol\":1727:1780  keccak256(abi.encodePacked(users[_userAddress].role)) */\n      dup1\n      mload\n      swap1\n      0x20\n      add\n      keccak256\n        /* \"Authentification.sol\":1727:1818  keccak256(abi.encodePacked(users[_userAddress].role)) == keccak256(abi.encodePacked(_role)) */\n      eq\n        /* \"Authentification.sol\":1727:1915  keccak256(abi.encodePacked(users[_userAddress].role)) == keccak256(abi.encodePacked(_role)) || keccak256(abi.encodePacked(users[_userAddress].role)) == keccak256(abi.encodePacked(\"admin\")) */\n      dup1\n      tag_58\n      jumpi\n      pop\n        /* \"Authentification.sol\":1889:1914  abi.encodePacked(\"admin\") */\n      add(0x20, mload(0x40))\n      tag_59\n      swap1\n      tag_60\n      jump\t// in\n    tag_59:\n      mload(0x40)\n      0x20\n      dup2\n      dup4\n      sub\n      sub\n      dup2\n      mstore\n      swap1\n      0x40\n      mstore\n        /* \"Authentification.sol\":1879:1915  keccak256(abi.encodePacked(\"admin\")) */\n      dup1\n      mload\n      swap1\n      0x20\n      add\n      keccak256\n        /* \"Authentification.sol\":1849:1854  users */\n      0x00\n        /* \"Authentification.sol\":1849:1868  users[_userAddress] */\n      dup1\n        /* \"Authentification.sol\":1855:1867  _userAddress */\n      dup7\n        /* \"Authentification.sol\":1849:1868  users[_userAddress] */\n      0xffffffffffffffffffffffffffffffffffffffff\n      and\n      0xffffffffffffffffffffffffffffffffffffffff\n      and\n      dup2\n      mstore\n      0x20\n      add\n      swap1\n      dup2\n      mstore\n      0x20\n      add\n      0x00\n      keccak256\n        /* \"Authentification.sol\":1849:1873  users[_userAddress].role */\n      0x00\n      add\n        /* \"Authentification.sol\":1832:1874  abi.encodePacked(users[_userAddress].role) */\n      add(0x20, mload(0x40))\n      tag_61\n      swap2\n      swap1\n      tag_51\n      jump\t// in\n    tag_61:\n      mload(0x40)\n      0x20\n      dup2\n      dup4\n      sub\n      sub\n      dup2\n      mstore\n      swap1\n      0x40\n      mstore\n        /* \"Authentification.sol\":1822:1875  keccak256(abi.encodePacked(users[_userAddress].role)) */\n      dup1\n      mload\n      swap1\n      0x20\n      add\n      keccak256\n        /* \"Authentification.sol\":1822:1915  keccak256(abi.encodePacked(users[_userAddress].role)) == keccak256(abi.encodePacked(\"admin\")) */\n      eq\n        /* \"Authentification.sol\":1727:1915  keccak256(abi.encodePacked(users[_userAddress].role)) == keccak256(abi.encodePacked(_role)) || keccak256(abi.encodePacked(users[_userAddress].role)) == keccak256(abi.encodePacked(\"admin\")) */\n    tag_58:\n        /* \"Authentification.sol\":1720:1915  return keccak256(abi.encodePacked(users[_userAddress].role)) == keccak256(abi.encodePacked(_role)) || keccak256(abi.encodePacked(users[_userAddress].role)) == keccak256(abi.encodePacked(\"admin\")) */\n      swap2\n      pop\n        /* \"Authentification.sol\":1592:1923  function isAuthorized(address _userAddress, string memory _role) public view userExists(_userAddress) returns (bool) {\r... */\n      pop\n      swap3\n      swap2\n      pop\n      pop\n      jump\t// out\n        /* \"Authentification.sol\":1188:1342  function getUserRole(address _userAddress) public view userExists(_userAddress) returns (string memory) {\r... */\n    tag_24:\n        /* \"Authentification.sol\":1277:1290  string memory */\n      0x60\n        /* \"Authentification.sol\":1254:1266  _userAddress */\n      dup2\n        /* \"Authentification.sol\":638:643  users */\n      0x00\n        /* \"Authentification.sol\":638:657  users[_userAddress] */\n      dup1\n        /* \"Authentification.sol\":644:656  _userAddress */\n      dup3\n        /* \"Authentification.sol\":638:657  users[_userAddress] */\n      0xffffffffffffffffffffffffffffffffffffffff\n      and\n      0xffffffffffffffffffffffffffffffffffffffff\n      and\n      dup2\n      mstore\n      0x20\n      add\n      swap1\n      dup2\n      mstore\n      0x20\n      add\n      0x00\n      keccak256\n        /* \"Authentification.sol\":638:664  users[_userAddress].exists */\n      0x02\n      add\n      0x00\n      swap1\n      sload\n      swap1\n      0x0100\n      exp\n      swap1\n      div\n      0xff\n      and\n        /* \"Authentification.sol\":630:688  require(users[_userAddress].exists, \"User does not exist\") */\n      tag_63\n      jumpi\n      mload(0x40)\n      0x08c379a000000000000000000000000000000000000000000000000000000000\n      dup2\n      mstore\n      0x04\n      add\n      tag_64\n      swap1\n      tag_46\n      jump\t// in\n    tag_64:\n      mload(0x40)\n      dup1\n      swap2\n      sub\n      swap1\n      revert\n    tag_63:\n        /* \"Authentification.sol\":1310:1315  users */\n      0x00\n        /* \"Authentification.sol\":1310:1329  users[_userAddress] */\n      dup1\n        /* \"Authentification.sol\":1316:1328  _userAddress */\n      dup5\n        /* \"Authentification.sol\":1310:1329  users[_userAddress] */\n      0xffffffffffffffffffffffffffffffffffffffff\n      and\n      0xffffffffffffffffffffffffffffffffffffffff\n      and\n      dup2\n      mstore\n      0x20\n      add\n      swap1\n      dup2\n      mstore\n      0x20\n      add\n      0x00\n      keccak256\n        /* \"Authentification.sol\":1310:1334  users[_userAddress].role */\n      0x00\n      add\n        /* \"Authentification.sol\":1303:1334  return users[_userAddress].role */\n      dup1\n      sload\n      tag_66\n      swap1\n      tag_67\n      jump\t// in\n    tag_66:\n      dup1\n      0x1f\n      add\n      0x20\n      dup1\n      swap2\n      div\n      mul\n      0x20\n      add\n      mload(0x40)\n      swap1\n      dup2\n      add\n      0x40\n      mstore\n      dup1\n      swap3\n      swap2\n      swap1\n      dup2\n      dup2\n      mstore\n      0x20\n      add\n      dup3\n      dup1\n      sload\n      tag_68\n      swap1\n      tag_67\n      jump\t// in\n    tag_68:\n      dup1\n      iszero\n      tag_69\n      jumpi\n      dup1\n      0x1f\n      lt\n      tag_70\n      jumpi\n      0x0100\n      dup1\n      dup4\n      sload\n      div\n      mul\n      dup4\n      mstore\n      swap2\n      0x20\n      add\n      swap2\n      jump(tag_69)\n    tag_70:\n      dup3\n      add\n      swap2\n      swap1\n      0x00\n      mstore\n      keccak256(0x00, 0x20)\n      swap1\n    tag_71:\n      dup2\n      sload\n      dup2\n      mstore\n      swap1\n      0x01\n      add\n      swap1\n      0x20\n      add\n      dup1\n      dup4\n      gt\n      tag_71\n      jumpi\n      dup3\n      swap1\n      sub\n      0x1f\n      and\n      dup3\n      add\n      swap2\n    tag_69:\n      pop\n      pop\n      pop\n      pop\n      pop\n      swap2\n      pop\n        /* \"Authentification.sol\":1188:1342  function getUserRole(address _userAddress) public view userExists(_userAddress) returns (string memory) {\r... */\n      pop\n      swap2\n      swap1\n      pop\n      jump\t// out\n        /* \"Authentification.sol\":233:253  address public owner */\n    tag_28:\n      0x01\n      0x00\n      swap1\n      sload\n      swap1\n      0x0100\n      exp\n      swap1\n      div\n      0xffffffffffffffffffffffffffffffffffffffff\n      and\n      dup2\n      jump\t// out\n        /* \"Authentification.sol\":1010:1180  function removeUser(address _userAddress) public onlyOwner userExists(_userAddress) {\r... */\n    tag_33:\n        /* \"Authentification.sol\":508:513  owner */\n      0x01\n      0x00\n      swap1\n      sload\n      swap1\n      0x0100\n      exp\n      swap1\n      div\n      0xffffffffffffffffffffffffffffffffffffffff\n      and\n        /* \"Authentification.sol\":494:513  msg.sender == owner */\n      0xffffffffffffffffffffffffffffffffffffffff\n      and\n        /* \"Authentification.sol\":494:504  msg.sender */\n      caller\n        /* \"Authentification.sol\":494:513  msg.sender == owner */\n      0xffffffffffffffffffffffffffffffffffffffff\n      and\n      eq\n        /* \"Authentification.sol\":486:551  require(msg.sender == owner, \"Only owner can call this function\") */\n      tag_73\n      jumpi\n      mload(0x40)\n      0x08c379a000000000000000000000000000000000000000000000000000000000\n      dup2\n      mstore\n      0x04\n      add\n      tag_74\n      swap1\n      tag_75\n      jump\t// in\n    tag_74:\n      mload(0x40)\n      dup1\n      swap2\n      sub\n      swap1\n      revert\n    tag_73:\n        /* \"Authentification.sol\":1080:1092  _userAddress */\n      dup1\n        /* \"Authentification.sol\":638:643  users */\n      0x00\n        /* \"Authentification.sol\":638:657  users[_userAddress] */\n      dup1\n        /* \"Authentification.sol\":644:656  _userAddress */\n      dup3\n        /* \"Authentification.sol\":638:657  users[_userAddress] */\n      0xffffffffffffffffffffffffffffffffffffffff\n      and\n      0xffffffffffffffffffffffffffffffffffffffff\n      and\n      dup2\n      mstore\n      0x20\n      add\n      swap1\n      dup2\n      mstore\n      0x20\n      add\n      0x00\n      keccak256\n        /* \"Authentification.sol\":638:664  users[_userAddress].exists */\n      0x02\n      add\n      0x00\n      swap1\n      sload\n      swap1\n      0x0100\n      exp\n      swap1\n      div\n      0xff\n      and\n        /* \"Authentification.sol\":630:688  require(users[_userAddress].exists, \"User does not exist\") */\n      tag_77\n      jumpi\n      mload(0x40)\n      0x08c379a000000000000000000000000000000000000000000000000000000000\n      dup2\n      mstore\n      0x04\n      add\n      tag_78\n      swap1\n      tag_46\n      jump\t// in\n    tag_78:\n      mload(0x40)\n      dup1\n      swap2\n      sub\n      swap1\n      revert\n    tag_77:\n        /* \"Authentification.sol\":1112:1117  users */\n      0x00\n        /* \"Authentification.sol\":1112:1131  users[_userAddress] */\n      dup1\n        /* \"Authentification.sol\":1118:1130  _userAddress */\n      dup4\n        /* \"Authentification.sol\":1112:1131  users[_userAddress] */\n      0xffffffffffffffffffffffffffffffffffffffff\n      and\n      0xffffffffffffffffffffffffffffffffffffffff\n      and\n      dup2\n      mstore\n      0x20\n      add\n      swap1\n      dup2\n      mstore\n      0x20\n      add\n      0x00\n      keccak256\n      0x00\n        /* \"Authentification.sol\":1105:1131  delete users[_userAddress] */\n      dup1\n      dup3\n      add\n      0x00\n      tag_80\n      swap2\n      swap1\n      tag_81\n      jump\t// in\n    tag_80:\n      0x01\n      dup3\n      add\n      0x00\n      tag_82\n      swap2\n      swap1\n      tag_81\n      jump\t// in\n    tag_82:\n      0x02\n      dup3\n      add\n      exp(0x0100, 0x00)\n      dup2\n      sload\n      swap1\n      0xff\n      mul\n      not\n      and\n      swap1\n      sstore\n      pop\n      pop\n        /* \"Authentification.sol\":1159:1171  _userAddress */\n      dup2\n        /* \"Authentification.sol\":1147:1172  UserRemoved(_userAddress) */\n      0xffffffffffffffffffffffffffffffffffffffff\n      and\n      0xe9dce8c992623ce791725b21e857e33248d1f190a25b5168313420eebdaae99d\n      mload(0x40)\n      mload(0x40)\n      dup1\n      swap2\n      sub\n      swap1\n      log2\n        /* \"Authentification.sol\":562:563  _ */\n      pop\n        /* \"Authentification.sol\":1010:1180  function removeUser(address _userAddress) public onlyOwner userExists(_userAddress) {\r... */\n      pop\n      jump\t// out\n        /* \"Authentification.sol\":189:226  mapping(address => User) public users */\n    tag_36:\n      mstore(0x20, 0x00)\n      dup1\n      0x00\n      mstore\n      keccak256(0x00, 0x40)\n      0x00\n      swap2\n      pop\n      swap1\n      pop\n      dup1\n      0x00\n      add\n      dup1\n      sload\n      tag_83\n      swap1\n      tag_67\n      jump\t// in\n    tag_83:\n      dup1\n      0x1f\n      add\n      0x20\n      dup1\n      swap2\n      div\n      mul\n      0x20\n      add\n      mload(0x40)\n      swap1\n      dup2\n      add\n      0x40\n      mstore\n      dup1\n      swap3\n      swap2\n      swap1\n      dup2\n      dup2\n      mstore\n      0x20\n      add\n      dup3\n      dup1\n      sload\n      tag_84\n      swap1\n      tag_67\n      jump\t// in\n    tag_84:\n      dup1\n      iszero\n      tag_85\n      jumpi\n      dup1\n      0x1f\n      lt\n      tag_86\n      jumpi\n      0x0100\n      dup1\n      dup4\n      sload\n      div\n      mul\n      dup4\n      mstore\n      swap2\n      0x20\n      add\n      swap2\n      jump(tag_85)\n    tag_86:\n      dup3\n      add\n      swap2\n      swap1\n      0x00\n      mstore\n      keccak256(0x00, 0x20)\n      swap1\n    tag_87:\n      dup2\n      sload\n      dup2\n      mstore\n      swap1\n      0x01\n      add\n      swap1\n      0x20\n      add\n      dup1\n      dup4\n      gt\n      tag_87\n      jumpi\n      dup3\n      swap1\n      sub\n      0x1f\n      and\n      dup3\n      add\n      swap2\n    tag_85:\n      pop\n      pop\n      pop\n      pop\n      pop\n      swap1\n      dup1\n      0x01\n      add\n      dup1\n      sload\n      tag_88\n      swap1\n      tag_67\n      jump\t// in\n    tag_88:\n      dup1\n      0x1f\n      add\n      0x20\n      dup1\n      swap2\n      div\n      mul\n      0x20\n      add\n      mload(0x40)\n      swap1\n      dup2\n      add\n      0x40\n      mstore\n      dup1\n      swap3\n      swap2\n      swap1\n      dup2\n      dup2\n      mstore\n      0x20\n      add\n      dup3\n      dup1\n      sload\n      tag_89\n      swap1\n      tag_67\n      jump\t// in\n    tag_89:\n      dup1\n      iszero\n      tag_90\n      jumpi\n      dup1\n      0x1f\n      lt\n      tag_91\n      jumpi\n      0x0100\n      dup1\n      dup4\n      sload\n      div\n      mul\n      dup4\n      mstore\n      swap2\n      0x20\n      add\n      swap2\n      jump(tag_90)\n    tag_91:\n      dup3\n      add\n      swap2\n      swap1\n      0x00\n      mstore\n      keccak256(0x00, 0x20)\n      swap1\n    tag_92:\n      dup2\n      sload\n      dup2\n      mstore\n      swap1\n      0x01\n      add\n      swap1\n      0x20\n      add\n      dup1\n      dup4\n      gt\n      tag_92\n      jumpi\n      dup3\n      swap1\n      sub\n      0x1f\n      and\n      dup3\n      add\n      swap2\n    tag_90:\n      pop\n      pop\n      pop\n      pop\n      pop\n      swap1\n      dup1\n      0x02\n      add\n      0x00\n      swap1\n      sload\n      swap1\n      0x0100\n      exp\n      swap1\n      div\n      0xff\n      and\n      swap1\n      pop\n      dup4\n      jump\t// out\n        /* \"Authentification.sol\":716:1002  function addUser(address _userAddress, string memory _role, string memory _name) public onlyOwner {\r... */\n    tag_42:\n        /* \"Authentification.sol\":508:513  owner */\n      0x01\n      0x00\n      swap1\n      sload\n      swap1\n      0x0100\n      exp\n      swap1\n      div\n      0xffffffffffffffffffffffffffffffffffffffff\n      and\n        /* \"Authentification.sol\":494:513  msg.sender == owner */\n      0xffffffffffffffffffffffffffffffffffffffff\n      and\n        /* \"Authentification.sol\":494:504  msg.sender */\n      caller\n        /* \"Authentification.sol\":494:513  msg.sender == owner */\n      0xffffffffffffffffffffffffffffffffffffffff\n      and\n      eq\n        /* \"Authentification.sol\":486:551  require(msg.sender == owner, \"Only owner can call this function\") */\n      tag_94\n      jumpi\n      mload(0x40)\n      0x08c379a000000000000000000000000000000000000000000000000000000000\n      dup2\n      mstore\n      0x04\n      add\n      tag_95\n      swap1\n      tag_75\n      jump\t// in\n    tag_95:\n      mload(0x40)\n      dup1\n      swap2\n      sub\n      swap1\n      revert\n    tag_94:\n        /* \"Authentification.sol\":834:839  users */\n      0x00\n        /* \"Authentification.sol\":834:853  users[_userAddress] */\n      dup1\n        /* \"Authentification.sol\":840:852  _userAddress */\n      dup5\n        /* \"Authentification.sol\":834:853  users[_userAddress] */\n      0xffffffffffffffffffffffffffffffffffffffff\n      and\n      0xffffffffffffffffffffffffffffffffffffffff\n      and\n      dup2\n      mstore\n      0x20\n      add\n      swap1\n      dup2\n      mstore\n      0x20\n      add\n      0x00\n      keccak256\n        /* \"Authentification.sol\":834:860  users[_userAddress].exists */\n      0x02\n      add\n      0x00\n      swap1\n      sload\n      swap1\n      0x0100\n      exp\n      swap1\n      div\n      0xff\n      and\n        /* \"Authentification.sol\":833:860  !users[_userAddress].exists */\n      iszero\n        /* \"Authentification.sol\":825:884  require(!users[_userAddress].exists, \"User already exists\") */\n      tag_97\n      jumpi\n      mload(0x40)\n      0x08c379a000000000000000000000000000000000000000000000000000000000\n      dup2\n      mstore\n      0x04\n      add\n      tag_98\n      swap1\n      tag_99\n      jump\t// in\n    tag_98:\n      mload(0x40)\n      dup1\n      swap2\n      sub\n      swap1\n      revert\n    tag_97:\n        /* \"Authentification.sol\":917:941  User(_role, _name, true) */\n      mload(0x40)\n      dup1\n      0x60\n      add\n      0x40\n      mstore\n      dup1\n        /* \"Authentification.sol\":922:927  _role */\n      dup4\n        /* \"Authentification.sol\":917:941  User(_role, _name, true) */\n      dup2\n      mstore\n      0x20\n      add\n        /* \"Authentification.sol\":929:934  _name */\n      dup3\n        /* \"Authentification.sol\":917:941  User(_role, _name, true) */\n      dup2\n      mstore\n      0x20\n      add\n        /* \"Authentification.sol\":936:940  true */\n      0x01\n        /* \"Authentification.sol\":917:941  User(_role, _name, true) */\n      iszero\n      iszero\n      dup2\n      mstore\n      pop\n        /* \"Authentification.sol\":895:900  users */\n      0x00\n        /* \"Authentification.sol\":895:914  users[_userAddress] */\n      dup1\n        /* \"Authentification.sol\":901:913  _userAddress */\n      dup6\n        /* \"Authentification.sol\":895:914  users[_userAddress] */\n      0xffffffffffffffffffffffffffffffffffffffff\n      and\n      0xffffffffffffffffffffffffffffffffffffffff\n      and\n      dup2\n      mstore\n      0x20\n      add\n      swap1\n      dup2\n      mstore\n      0x20\n      add\n      0x00\n      keccak256\n        /* \"Authentification.sol\":895:941  users[_userAddress] = User(_role, _name, true) */\n      0x00\n      dup3\n      add\n      mload\n      dup2\n      0x00\n      add\n      swap1\n      dup1\n      mload\n      swap1\n      0x20\n      add\n      swap1\n      tag_100\n      swap3\n      swap2\n      swap1\n      tag_101\n      jump\t// in\n    tag_100:\n      pop\n      0x20\n      dup3\n      add\n      mload\n      dup2\n      0x01\n      add\n      swap1\n      dup1\n      mload\n      swap1\n      0x20\n      add\n      swap1\n      tag_102\n      swap3\n      swap2\n      swap1\n      tag_101\n      jump\t// in\n    tag_102:\n      pop\n      0x40\n      dup3\n      add\n      mload\n      dup2\n      0x02\n      add\n      exp(0x0100, 0x00)\n      dup2\n      sload\n      dup2\n      0xff\n      mul\n      not\n      and\n      swap1\n      dup4\n      iszero\n      iszero\n      mul\n      or\n      swap1\n      sstore\n      pop\n      swap1\n      pop\n      pop\n        /* \"Authentification.sol\":967:979  _userAddress */\n      dup3\n        /* \"Authentification.sol\":957:994  UserAdded(_userAddress, _role, _name) */\n      0xffffffffffffffffffffffffffffffffffffffff\n      and\n      0x8eab1db142a914aff8b515eedb9177bd7effaef6d714c41e30bdf15206778607\n        /* \"Authentification.sol\":981:986  _role */\n      dup4\n        /* \"Authentification.sol\":988:993  _name */\n      dup4\n        /* \"Authentification.sol\":957:994  UserAdded(_userAddress, _role, _name) */\n      mload(0x40)\n      tag_103\n      swap3\n      swap2\n      swap1\n      tag_104\n      jump\t// in\n    tag_103:\n      mload(0x40)\n      dup1\n      swap2\n      sub\n      swap1\n      log2\n        /* \"Authentification.sol\":716:1002  function addUser(address _userAddress, string memory _role, string memory _name) public onlyOwner {\r... */\n      pop\n      pop\n      pop\n      jump\t// out\n    tag_81:\n      pop\n      dup1\n      sload\n      tag_105\n      swap1\n      tag_67\n      jump\t// in\n    tag_105:\n      0x00\n      dup3\n      sstore\n      dup1\n      0x1f\n      lt\n      tag_107\n      jumpi\n      pop\n      jump(tag_106)\n    tag_107:\n      0x1f\n      add\n      0x20\n      swap1\n      div\n      swap1\n      0x00\n      mstore\n      keccak256(0x00, 0x20)\n      swap1\n      dup2\n      add\n      swap1\n      tag_108\n      swap2\n      swap1\n      tag_109\n      jump\t// in\n    tag_108:\n    tag_106:\n      pop\n      jump\t// out\n    tag_101:\n      dup3\n      dup1\n      sload\n      tag_110\n      swap1\n      tag_67\n      jump\t// in\n    tag_110:\n      swap1\n      0x00\n      mstore\n      keccak256(0x00, 0x20)\n      swap1\n      0x1f\n      add\n      0x20\n      swap1\n      div\n      dup2\n      add\n      swap3\n      dup3\n      tag_112\n      jumpi\n      0x00\n      dup6\n      sstore\n      jump(tag_111)\n    tag_112:\n      dup3\n      0x1f\n      lt\n      tag_113\n      jumpi\n      dup1\n      mload\n      not(0xff)\n      and\n      dup4\n      dup1\n      add\n      or\n      dup6\n      sstore\n      jump(tag_111)\n    tag_113:\n      dup3\n      dup1\n      add\n      0x01\n      add\n      dup6\n      sstore\n      dup3\n      iszero\n      tag_111\n      jumpi\n      swap2\n      dup3\n      add\n    tag_114:\n      dup3\n      dup2\n      gt\n      iszero\n      tag_115\n      jumpi\n      dup3\n      mload\n      dup3\n      sstore\n      swap2\n      0x20\n      add\n      swap2\n      swap1\n      0x01\n      add\n      swap1\n      jump(tag_114)\n    tag_115:\n    tag_111:\n      pop\n      swap1\n      pop\n      tag_116\n      swap2\n      swap1\n      tag_109\n      jump\t// in\n    tag_116:\n      pop\n      swap1\n      jump\t// out\n    tag_109:\n    tag_117:\n      dup1\n      dup3\n      gt\n      iszero\n      tag_118\n      jumpi\n      0x00\n      dup2\n      0x00\n      swap1\n      sstore\n      pop\n      0x01\n      add\n      jump(tag_117)\n    tag_118:\n      pop\n      swap1\n      jump\t// out\n        /* \"#utility.yul\":7:351   */\n    tag_120:\n      0x00\n        /* \"#utility.yul\":110:175   */\n      tag_122\n        /* \"#utility.yul\":125:174   */\n      tag_123\n        /* \"#utility.yul\":167:173   */\n      dup5\n        /* \"#utility.yul\":125:174   */\n      tag_124\n      jump\t// in\n    tag_123:\n        /* \"#utility.yul\":110:175   */\n      tag_125\n      jump\t// in\n    tag_122:\n        /* \"#utility.yul\":101:175   */\n      swap1\n      pop\n        /* \"#utility.yul\":198:204   */\n      dup3\n        /* \"#utility.yul\":191:196   */\n      dup2\n        /* \"#utility.yul\":184:205   */\n      mstore\n        /* \"#utility.yul\":236:240   */\n      0x20\n        /* \"#utility.yul\":229:234   */\n      dup2\n        /* \"#utility.yul\":225:241   */\n      add\n        /* \"#utility.yul\":274:277   */\n      dup5\n        /* \"#utility.yul\":265:271   */\n      dup5\n        /* \"#utility.yul\":260:263   */\n      dup5\n        /* \"#utility.yul\":256:272   */\n      add\n        /* \"#utility.yul\":253:278   */\n      gt\n        /* \"#utility.yul\":250:252   */\n      iszero\n      tag_126\n      jumpi\n        /* \"#utility.yul\":291:292   */\n      0x00\n        /* \"#utility.yul\":288:289   */\n      dup1\n        /* \"#utility.yul\":281:293   */\n      revert\n        /* \"#utility.yul\":250:252   */\n    tag_126:\n        /* \"#utility.yul\":304:345   */\n      tag_127\n        /* \"#utility.yul\":338:344   */\n      dup5\n        /* \"#utility.yul\":333:336   */\n      dup3\n        /* \"#utility.yul\":328:331   */\n      dup6\n        /* \"#utility.yul\":304:345   */\n      tag_128\n      jump\t// in\n    tag_127:\n        /* \"#utility.yul\":91:351   */\n      pop\n      swap4\n      swap3\n      pop\n      pop\n      pop\n      jump\t// out\n        /* \"#utility.yul\":357:496   */\n    tag_129:\n      0x00\n        /* \"#utility.yul\":441:447   */\n      dup2\n        /* \"#utility.yul\":428:448   */\n      calldataload\n        /* \"#utility.yul\":419:448   */\n      swap1\n      pop\n        /* \"#utility.yul\":457:490   */\n      tag_131\n        /* \"#utility.yul\":484:489   */\n      dup2\n        /* \"#utility.yul\":457:490   */\n      tag_132\n      jump\t// in\n    tag_131:\n        /* \"#utility.yul\":409:496   */\n      swap3\n      swap2\n      pop\n      pop\n      jump\t// out\n        /* \"#utility.yul\":516:789   */\n    tag_133:\n      0x00\n        /* \"#utility.yul\":621:624   */\n      dup3\n        /* \"#utility.yul\":614:618   */\n      0x1f\n        /* \"#utility.yul\":606:612   */\n      dup4\n        /* \"#utility.yul\":602:619   */\n      add\n        /* \"#utility.yul\":598:625   */\n      slt\n        /* \"#utility.yul\":588:590   */\n      tag_135\n      jumpi\n        /* \"#utility.yul\":639:640   */\n      0x00\n        /* \"#utility.yul\":636:637   */\n      dup1\n        /* \"#utility.yul\":629:641   */\n      revert\n        /* \"#utility.yul\":588:590   */\n    tag_135:\n        /* \"#utility.yul\":679:685   */\n      dup2\n        /* \"#utility.yul\":666:686   */\n      calldataload\n        /* \"#utility.yul\":704:783   */\n      tag_136\n        /* \"#utility.yul\":779:782   */\n      dup5\n        /* \"#utility.yul\":771:777   */\n      dup3\n        /* \"#utility.yul\":764:768   */\n      0x20\n        /* \"#utility.yul\":756:762   */\n      dup7\n        /* \"#utility.yul\":752:769   */\n      add\n        /* \"#utility.yul\":704:783   */\n      tag_120\n      jump\t// in\n    tag_136:\n        /* \"#utility.yul\":695:783   */\n      swap2\n      pop\n        /* \"#utility.yul\":578:789   */\n      pop\n      swap3\n      swap2\n      pop\n      pop\n      jump\t// out\n        /* \"#utility.yul\":795:1057   */\n    tag_23:\n      0x00\n        /* \"#utility.yul\":903:905   */\n      0x20\n        /* \"#utility.yul\":891:900   */\n      dup3\n        /* \"#utility.yul\":882:889   */\n      dup5\n        /* \"#utility.yul\":878:901   */\n      sub\n        /* \"#utility.yul\":874:906   */\n      slt\n        /* \"#utility.yul\":871:873   */\n      iszero\n      tag_138\n      jumpi\n        /* \"#utility.yul\":919:920   */\n      0x00\n        /* \"#utility.yul\":916:917   */\n      dup1\n        /* \"#utility.yul\":909:921   */\n      revert\n        /* \"#utility.yul\":871:873   */\n    tag_138:\n        /* \"#utility.yul\":962:963   */\n      0x00\n        /* \"#utility.yul\":987:1040   */\n      tag_139\n        /* \"#utility.yul\":1032:1039   */\n      dup5\n        /* \"#utility.yul\":1023:1029   */\n      dup3\n        /* \"#utility.yul\":1012:1021   */\n      dup6\n        /* \"#utility.yul\":1008:1030   */\n      add\n        /* \"#utility.yul\":987:1040   */\n      tag_129\n      jump\t// in\n    tag_139:\n        /* \"#utility.yul\":977:1040   */\n      swap2\n      pop\n        /* \"#utility.yul\":933:1050   */\n      pop\n        /* \"#utility.yul\":861:1057   */\n      swap3\n      swap2\n      pop\n      pop\n      jump\t// out\n        /* \"#utility.yul\":1063:1583   */\n    tag_13:\n      0x00\n      dup1\n        /* \"#utility.yul\":1198:1200   */\n      0x40\n        /* \"#utility.yul\":1186:1195   */\n      dup4\n        /* \"#utility.yul\":1177:1184   */\n      dup6\n        /* \"#utility.yul\":1173:1196   */\n      sub\n        /* \"#utility.yul\":1169:1201   */\n      slt\n        /* \"#utility.yul\":1166:1168   */\n      iszero\n      tag_141\n      jumpi\n        /* \"#utility.yul\":1214:1215   */\n      0x00\n        /* \"#utility.yul\":1211:1212   */\n      dup1\n        /* \"#utility.yul\":1204:1216   */\n      revert\n        /* \"#utility.yul\":1166:1168   */\n    tag_141:\n        /* \"#utility.yul\":1257:1258   */\n      0x00\n        /* \"#utility.yul\":1282:1335   */\n      tag_142\n        /* \"#utility.yul\":1327:1334   */\n      dup6\n        /* \"#utility.yul\":1318:1324   */\n      dup3\n        /* \"#utility.yul\":1307:1316   */\n      dup7\n        /* \"#utility.yul\":1303:1325   */\n      add\n        /* \"#utility.yul\":1282:1335   */\n      tag_129\n      jump\t// in\n    tag_142:\n        /* \"#utility.yul\":1272:1335   */\n      swap3\n      pop\n        /* \"#utility.yul\":1228:1345   */\n      pop\n        /* \"#utility.yul\":1412:1414   */\n      0x20\n        /* \"#utility.yul\":1401:1410   */\n      dup4\n        /* \"#utility.yul\":1397:1415   */\n      add\n        /* \"#utility.yul\":1384:1416   */\n      calldataload\n        /* \"#utility.yul\":1443:1461   */\n      0xffffffffffffffff\n        /* \"#utility.yul\":1435:1441   */\n      dup2\n        /* \"#utility.yul\":1432:1462   */\n      gt\n        /* \"#utility.yul\":1429:1431   */\n      iszero\n      tag_143\n      jumpi\n        /* \"#utility.yul\":1475:1476   */\n      0x00\n        /* \"#utility.yul\":1472:1473   */\n      dup1\n        /* \"#utility.yul\":1465:1477   */\n      revert\n        /* \"#utility.yul\":1429:1431   */\n    tag_143:\n        /* \"#utility.yul\":1503:1566   */\n      tag_144\n        /* \"#utility.yul\":1558:1565   */\n      dup6\n        /* \"#utility.yul\":1549:1555   */\n      dup3\n        /* \"#utility.yul\":1538:1547   */\n      dup7\n        /* \"#utility.yul\":1534:1556   */\n      add\n        /* \"#utility.yul\":1503:1566   */\n      tag_133\n      jump\t// in\n    tag_144:\n        /* \"#utility.yul\":1493:1566   */\n      swap2\n      pop\n        /* \"#utility.yul\":1355:1576   */\n      pop\n        /* \"#utility.yul\":1156:1583   */\n      swap3\n      pop\n      swap3\n      swap1\n      pop\n      jump\t// out\n        /* \"#utility.yul\":1589:2367   */\n    tag_41:\n      0x00\n      dup1\n      0x00\n        /* \"#utility.yul\":1751:1753   */\n      0x60\n        /* \"#utility.yul\":1739:1748   */\n      dup5\n        /* \"#utility.yul\":1730:1737   */\n      dup7\n        /* \"#utility.yul\":1726:1749   */\n      sub\n        /* \"#utility.yul\":1722:1754   */\n      slt\n        /* \"#utility.yul\":1719:1721   */\n      iszero\n      tag_146\n      jumpi\n        /* \"#utility.yul\":1767:1768   */\n      0x00\n        /* \"#utility.yul\":1764:1765   */\n      dup1\n        /* \"#utility.yul\":1757:1769   */\n      revert\n        /* \"#utility.yul\":1719:1721   */\n    tag_146:\n        /* \"#utility.yul\":1810:1811   */\n      0x00\n        /* \"#utility.yul\":1835:1888   */\n      tag_147\n        /* \"#utility.yul\":1880:1887   */\n      dup7\n        /* \"#utility.yul\":1871:1877   */\n      dup3\n        /* \"#utility.yul\":1860:1869   */\n      dup8\n        /* \"#utility.yul\":1856:1878   */\n      add\n        /* \"#utility.yul\":1835:1888   */\n      tag_129\n      jump\t// in\n    tag_147:\n        /* \"#utility.yul\":1825:1888   */\n      swap4\n      pop\n        /* \"#utility.yul\":1781:1898   */\n      pop\n        /* \"#utility.yul\":1965:1967   */\n      0x20\n        /* \"#utility.yul\":1954:1963   */\n      dup5\n        /* \"#utility.yul\":1950:1968   */\n      add\n        /* \"#utility.yul\":1937:1969   */\n      calldataload\n        /* \"#utility.yul\":1996:2014   */\n      0xffffffffffffffff\n        /* \"#utility.yul\":1988:1994   */\n      dup2\n        /* \"#utility.yul\":1985:2015   */\n      gt\n        /* \"#utility.yul\":1982:1984   */\n      iszero\n      tag_148\n      jumpi\n        /* \"#utility.yul\":2028:2029   */\n      0x00\n        /* \"#utility.yul\":2025:2026   */\n      dup1\n        /* \"#utility.yul\":2018:2030   */\n      revert\n        /* \"#utility.yul\":1982:1984   */\n    tag_148:\n        /* \"#utility.yul\":2056:2119   */\n      tag_149\n        /* \"#utility.yul\":2111:2118   */\n      dup7\n        /* \"#utility.yul\":2102:2108   */\n      dup3\n        /* \"#utility.yul\":2091:2100   */\n      dup8\n        /* \"#utility.yul\":2087:2109   */\n      add\n        /* \"#utility.yul\":2056:2119   */\n      tag_133\n      jump\t// in\n    tag_149:\n        /* \"#utility.yul\":2046:2119   */\n      swap3\n      pop\n        /* \"#utility.yul\":1908:2129   */\n      pop\n        /* \"#utility.yul\":2196:2198   */\n      0x40\n        /* \"#utility.yul\":2185:2194   */\n      dup5\n        /* \"#utility.yul\":2181:2199   */\n      add\n        /* \"#utility.yul\":2168:2200   */\n      calldataload\n        /* \"#utility.yul\":2227:2245   */\n      0xffffffffffffffff\n        /* \"#utility.yul\":2219:2225   */\n      dup2\n        /* \"#utility.yul\":2216:2246   */\n      gt\n        /* \"#utility.yul\":2213:2215   */\n      iszero\n      tag_150\n      jumpi\n        /* \"#utility.yul\":2259:2260   */\n      0x00\n        /* \"#utility.yul\":2256:2257   */\n      dup1\n        /* \"#utility.yul\":2249:2261   */\n      revert\n        /* \"#utility.yul\":2213:2215   */\n    tag_150:\n        /* \"#utility.yul\":2287:2350   */\n      tag_151\n        /* \"#utility.yul\":2342:2349   */\n      dup7\n        /* \"#utility.yul\":2333:2339   */\n      dup3\n        /* \"#utility.yul\":2322:2331   */\n      dup8\n        /* \"#utility.yul\":2318:2340   */\n      add\n        /* \"#utility.yul\":2287:2350   */\n      tag_133\n      jump\t// in\n    tag_151:\n        /* \"#utility.yul\":2277:2350   */\n      swap2\n      pop\n        /* \"#utility.yul\":2139:2360   */\n      pop\n        /* \"#utility.yul\":1709:2367   */\n      swap3\n      pop\n      swap3\n      pop\n      swap3\n      jump\t// out\n        /* \"#utility.yul\":2373:2491   */\n    tag_152:\n        /* \"#utility.yul\":2460:2484   */\n      tag_154\n        /* \"#utility.yul\":2478:2483   */\n      dup2\n        /* \"#utility.yul\":2460:2484   */\n      tag_155\n      jump\t// in\n    tag_154:\n        /* \"#utility.yul\":2455:2458   */\n      dup3\n        /* \"#utility.yul\":2448:2485   */\n      mstore\n        /* \"#utility.yul\":2438:2491   */\n      pop\n      pop\n      jump\t// out\n        /* \"#utility.yul\":2497:2606   */\n    tag_156:\n        /* \"#utility.yul\":2578:2599   */\n      tag_158\n        /* \"#utility.yul\":2593:2598   */\n      dup2\n        /* \"#utility.yul\":2578:2599   */\n      tag_159\n      jump\t// in\n    tag_158:\n        /* \"#utility.yul\":2573:2576   */\n      dup3\n        /* \"#utility.yul\":2566:2600   */\n      mstore\n        /* \"#utility.yul\":2556:2606   */\n      pop\n      pop\n      jump\t// out\n        /* \"#utility.yul\":2612:2976   */\n    tag_160:\n      0x00\n        /* \"#utility.yul\":2728:2767   */\n      tag_162\n        /* \"#utility.yul\":2761:2766   */\n      dup3\n        /* \"#utility.yul\":2728:2767   */\n      tag_163\n      jump\t// in\n    tag_162:\n        /* \"#utility.yul\":2783:2854   */\n      tag_164\n        /* \"#utility.yul\":2847:2853   */\n      dup2\n        /* \"#utility.yul\":2842:2845   */\n      dup6\n        /* \"#utility.yul\":2783:2854   */\n      tag_165\n      jump\t// in\n    tag_164:\n        /* \"#utility.yul\":2776:2854   */\n      swap4\n      pop\n        /* \"#utility.yul\":2863:2915   */\n      tag_166\n        /* \"#utility.yul\":2908:2914   */\n      dup2\n        /* \"#utility.yul\":2903:2906   */\n      dup6\n        /* \"#utility.yul\":2896:2900   */\n      0x20\n        /* \"#utility.yul\":2889:2894   */\n      dup7\n        /* \"#utility.yul\":2885:2901   */\n      add\n        /* \"#utility.yul\":2863:2915   */\n      tag_167\n      jump\t// in\n    tag_166:\n        /* \"#utility.yul\":2940:2969   */\n      tag_168\n        /* \"#utility.yul\":2962:2968   */\n      dup2\n        /* \"#utility.yul\":2940:2969   */\n      tag_169\n      jump\t// in\n    tag_168:\n        /* \"#utility.yul\":2935:2938   */\n      dup5\n        /* \"#utility.yul\":2931:2970   */\n      add\n        /* \"#utility.yul\":2924:2970   */\n      swap2\n      pop\n        /* \"#utility.yul\":2704:2976   */\n      pop\n      swap3\n      swap2\n      pop\n      pop\n      jump\t// out\n        /* \"#utility.yul\":2982:3359   */\n    tag_170:\n      0x00\n        /* \"#utility.yul\":3116:3155   */\n      tag_172\n        /* \"#utility.yul\":3149:3154   */\n      dup3\n        /* \"#utility.yul\":3116:3155   */\n      tag_163\n      jump\t// in\n    tag_172:\n        /* \"#utility.yul\":3171:3260   */\n      tag_173\n        /* \"#utility.yul\":3253:3259   */\n      dup2\n        /* \"#utility.yul\":3248:3251   */\n      dup6\n        /* \"#utility.yul\":3171:3260   */\n      tag_174\n      jump\t// in\n    tag_173:\n        /* \"#utility.yul\":3164:3260   */\n      swap4\n      pop\n        /* \"#utility.yul\":3269:3321   */\n      tag_175\n        /* \"#utility.yul\":3314:3320   */\n      dup2\n        /* \"#utility.yul\":3309:3312   */\n      dup6\n        /* \"#utility.yul\":3302:3306   */\n      0x20\n        /* \"#utility.yul\":3295:3300   */\n      dup7\n        /* \"#utility.yul\":3291:3307   */\n      add\n        /* \"#utility.yul\":3269:3321   */\n      tag_167\n      jump\t// in\n    tag_175:\n        /* \"#utility.yul\":3346:3352   */\n      dup1\n        /* \"#utility.yul\":3341:3344   */\n      dup5\n        /* \"#utility.yul\":3337:3353   */\n      add\n        /* \"#utility.yul\":3330:3353   */\n      swap2\n      pop\n        /* \"#utility.yul\":3092:3359   */\n      pop\n      swap3\n      swap2\n      pop\n      pop\n      jump\t// out\n        /* \"#utility.yul\":3389:4234   */\n    tag_176:\n      0x00\n        /* \"#utility.yul\":3529:3534   */\n      dup2\n        /* \"#utility.yul\":3523:3535   */\n      sload\n        /* \"#utility.yul\":3558:3594   */\n      tag_178\n        /* \"#utility.yul\":3584:3593   */\n      dup2\n        /* \"#utility.yul\":3558:3594   */\n      tag_67\n      jump\t// in\n    tag_178:\n        /* \"#utility.yul\":3610:3699   */\n      tag_179\n        /* \"#utility.yul\":3692:3698   */\n      dup2\n        /* \"#utility.yul\":3687:3690   */\n      dup7\n        /* \"#utility.yul\":3610:3699   */\n      tag_174\n      jump\t// in\n    tag_179:\n        /* \"#utility.yul\":3603:3699   */\n      swap5\n      pop\n        /* \"#utility.yul\":3730:3731   */\n      0x01\n        /* \"#utility.yul\":3719:3728   */\n      dup3\n        /* \"#utility.yul\":3715:3732   */\n      and\n        /* \"#utility.yul\":3746:3747   */\n      0x00\n        /* \"#utility.yul\":3741:3878   */\n      dup2\n      eq\n      tag_181\n      jumpi\n        /* \"#utility.yul\":3892:3893   */\n      0x01\n        /* \"#utility.yul\":3887:4228   */\n      dup2\n      eq\n      tag_182\n      jumpi\n        /* \"#utility.yul\":3708:4228   */\n      jump(tag_180)\n        /* \"#utility.yul\":3741:3878   */\n    tag_181:\n        /* \"#utility.yul\":3825:3829   */\n      0xff\n        /* \"#utility.yul\":3821:3830   */\n      not\n        /* \"#utility.yul\":3810:3819   */\n      dup4\n        /* \"#utility.yul\":3806:3831   */\n      and\n        /* \"#utility.yul\":3801:3804   */\n      dup7\n        /* \"#utility.yul\":3794:3832   */\n      mstore\n        /* \"#utility.yul\":3861:3867   */\n      dup2\n        /* \"#utility.yul\":3856:3859   */\n      dup7\n        /* \"#utility.yul\":3852:3868   */\n      add\n        /* \"#utility.yul\":3845:3868   */\n      swap4\n      pop\n        /* \"#utility.yul\":3741:3878   */\n      jump(tag_180)\n        /* \"#utility.yul\":3887:4228   */\n    tag_182:\n        /* \"#utility.yul\":3954:3992   */\n      tag_183\n        /* \"#utility.yul\":3986:3991   */\n      dup6\n        /* \"#utility.yul\":3954:3992   */\n      tag_184\n      jump\t// in\n    tag_183:\n        /* \"#utility.yul\":4014:4015   */\n      0x00\n        /* \"#utility.yul\":4028:4182   */\n    tag_185:\n        /* \"#utility.yul\":4042:4048   */\n      dup4\n        /* \"#utility.yul\":4039:4040   */\n      dup2\n        /* \"#utility.yul\":4036:4049   */\n      lt\n        /* \"#utility.yul\":4028:4182   */\n      iszero\n      tag_187\n      jumpi\n        /* \"#utility.yul\":4116:4123   */\n      dup2\n        /* \"#utility.yul\":4110:4124   */\n      sload\n        /* \"#utility.yul\":4106:4107   */\n      dup2\n        /* \"#utility.yul\":4101:4104   */\n      dup10\n        /* \"#utility.yul\":4097:4108   */\n      add\n        /* \"#utility.yul\":4090:4125   */\n      mstore\n        /* \"#utility.yul\":4166:4167   */\n      0x01\n        /* \"#utility.yul\":4157:4164   */\n      dup3\n        /* \"#utility.yul\":4153:4168   */\n      add\n        /* \"#utility.yul\":4142:4168   */\n      swap2\n      pop\n        /* \"#utility.yul\":4064:4068   */\n      0x20\n        /* \"#utility.yul\":4061:4062   */\n      dup2\n        /* \"#utility.yul\":4057:4069   */\n      add\n        /* \"#utility.yul\":4052:4069   */\n      swap1\n      pop\n        /* \"#utility.yul\":4028:4182   */\n      jump(tag_185)\n    tag_187:\n        /* \"#utility.yul\":4211:4217   */\n      dup4\n        /* \"#utility.yul\":4206:4209   */\n      dup9\n        /* \"#utility.yul\":4202:4218   */\n      add\n        /* \"#utility.yul\":4195:4218   */\n      swap6\n      pop\n        /* \"#utility.yul\":3894:4228   */\n      pop\n      pop\n        /* \"#utility.yul\":3708:4228   */\n    tag_180:\n      pop\n        /* \"#utility.yul\":3496:4234   */\n      pop\n      pop\n      swap3\n      swap2\n      pop\n      pop\n      jump\t// out\n        /* \"#utility.yul\":4240:4605   */\n    tag_188:\n      0x00\n        /* \"#utility.yul\":4403:4470   */\n      tag_190\n        /* \"#utility.yul\":4467:4469   */\n      0x21\n        /* \"#utility.yul\":4462:4465   */\n      dup4\n        /* \"#utility.yul\":4403:4470   */\n      tag_165\n      jump\t// in\n    tag_190:\n        /* \"#utility.yul\":4396:4470   */\n      swap2\n      pop\n        /* \"#utility.yul\":4500:4534   */\n      0x4f6e6c79206f776e65722063616e2063616c6c20746869732066756e6374696f\n        /* \"#utility.yul\":4496:4497   */\n      0x00\n        /* \"#utility.yul\":4491:4494   */\n      dup4\n        /* \"#utility.yul\":4487:4498   */\n      add\n        /* \"#utility.yul\":4480:4535   */\n      mstore\n        /* \"#utility.yul\":4566:4569   */\n      0x6e00000000000000000000000000000000000000000000000000000000000000\n        /* \"#utility.yul\":4561:4563   */\n      0x20\n        /* \"#utility.yul\":4556:4559   */\n      dup4\n        /* \"#utility.yul\":4552:4564   */\n      add\n        /* \"#utility.yul\":4545:4570   */\n      mstore\n        /* \"#utility.yul\":4596:4598   */\n      0x40\n        /* \"#utility.yul\":4591:4594   */\n      dup3\n        /* \"#utility.yul\":4587:4599   */\n      add\n        /* \"#utility.yul\":4580:4599   */\n      swap1\n      pop\n        /* \"#utility.yul\":4386:4605   */\n      swap2\n      swap1\n      pop\n      jump\t// out\n        /* \"#utility.yul\":4611:4928   */\n    tag_191:\n      0x00\n        /* \"#utility.yul\":4774:4841   */\n      tag_193\n        /* \"#utility.yul\":4838:4840   */\n      0x13\n        /* \"#utility.yul\":4833:4836   */\n      dup4\n        /* \"#utility.yul\":4774:4841   */\n      tag_165\n      jump\t// in\n    tag_193:\n        /* \"#utility.yul\":4767:4841   */\n      swap2\n      pop\n        /* \"#utility.yul\":4871:4892   */\n      0x5573657220616c72656164792065786973747300000000000000000000000000\n        /* \"#utility.yul\":4867:4868   */\n      0x00\n        /* \"#utility.yul\":4862:4865   */\n      dup4\n        /* \"#utility.yul\":4858:4869   */\n      add\n        /* \"#utility.yul\":4851:4893   */\n      mstore\n        /* \"#utility.yul\":4919:4921   */\n      0x20\n        /* \"#utility.yul\":4914:4917   */\n      dup3\n        /* \"#utility.yul\":4910:4922   */\n      add\n        /* \"#utility.yul\":4903:4922   */\n      swap1\n      pop\n        /* \"#utility.yul\":4757:4928   */\n      swap2\n      swap1\n      pop\n      jump\t// out\n        /* \"#utility.yul\":4934:5251   */\n    tag_194:\n      0x00\n        /* \"#utility.yul\":5097:5164   */\n      tag_196\n        /* \"#utility.yul\":5161:5163   */\n      0x13\n        /* \"#utility.yul\":5156:5159   */\n      dup4\n        /* \"#utility.yul\":5097:5164   */\n      tag_165\n      jump\t// in\n    tag_196:\n        /* \"#utility.yul\":5090:5164   */\n      swap2\n      pop\n        /* \"#utility.yul\":5194:5215   */\n      0x5573657220646f6573206e6f7420657869737400000000000000000000000000\n        /* \"#utility.yul\":5190:5191   */\n      0x00\n        /* \"#utility.yul\":5185:5188   */\n      dup4\n        /* \"#utility.yul\":5181:5192   */\n      add\n        /* \"#utility.yul\":5174:5216   */\n      mstore\n        /* \"#utility.yul\":5242:5244   */\n      0x20\n        /* \"#utility.yul\":5237:5240   */\n      dup3\n        /* \"#utility.yul\":5233:5245   */\n      add\n        /* \"#utility.yul\":5226:5245   */\n      swap1\n      pop\n        /* \"#utility.yul\":5080:5251   */\n      swap2\n      swap1\n      pop\n      jump\t// out\n        /* \"#utility.yul\":5257:5594   */\n    tag_197:\n      0x00\n        /* \"#utility.yul\":5438:5522   */\n      tag_199\n        /* \"#utility.yul\":5520:5521   */\n      0x05\n        /* \"#utility.yul\":5515:5518   */\n      dup4\n        /* \"#utility.yul\":5438:5522   */\n      tag_174\n      jump\t// in\n    tag_199:\n        /* \"#utility.yul\":5431:5522   */\n      swap2\n      pop\n        /* \"#utility.yul\":5552:5559   */\n      0x61646d696e000000000000000000000000000000000000000000000000000000\n        /* \"#utility.yul\":5548:5549   */\n      0x00\n        /* \"#utility.yul\":5543:5546   */\n      dup4\n        /* \"#utility.yul\":5539:5550   */\n      add\n        /* \"#utility.yul\":5532:5560   */\n      mstore\n        /* \"#utility.yul\":5586:5587   */\n      0x05\n        /* \"#utility.yul\":5581:5584   */\n      dup3\n        /* \"#utility.yul\":5577:5588   */\n      add\n        /* \"#utility.yul\":5570:5588   */\n      swap1\n      pop\n        /* \"#utility.yul\":5421:5594   */\n      swap2\n      swap1\n      pop\n      jump\t// out\n        /* \"#utility.yul\":5600:5875   */\n    tag_49:\n      0x00\n        /* \"#utility.yul\":5754:5849   */\n      tag_201\n        /* \"#utility.yul\":5845:5848   */\n      dup3\n        /* \"#utility.yul\":5836:5842   */\n      dup5\n        /* \"#utility.yul\":5754:5849   */\n      tag_170\n      jump\t// in\n    tag_201:\n        /* \"#utility.yul\":5747:5849   */\n      swap2\n      pop\n        /* \"#utility.yul\":5866:5869   */\n      dup2\n        /* \"#utility.yul\":5859:5869   */\n      swap1\n      pop\n        /* \"#utility.yul\":5736:5875   */\n      swap3\n      swap2\n      pop\n      pop\n      jump\t// out\n        /* \"#utility.yul\":5881:6150   */\n    tag_51:\n      0x00\n        /* \"#utility.yul\":6032:6124   */\n      tag_203\n        /* \"#utility.yul\":6120:6123   */\n      dup3\n        /* \"#utility.yul\":6111:6117   */\n      dup5\n        /* \"#utility.yul\":6032:6124   */\n      tag_176\n      jump\t// in\n    tag_203:\n        /* \"#utility.yul\":6025:6124   */\n      swap2\n      pop\n        /* \"#utility.yul\":6141:6144   */\n      dup2\n        /* \"#utility.yul\":6134:6144   */\n      swap1\n      pop\n        /* \"#utility.yul\":6014:6150   */\n      swap3\n      swap2\n      pop\n      pop\n      jump\t// out\n        /* \"#utility.yul\":6156:6537   */\n    tag_60:\n      0x00\n        /* \"#utility.yul\":6363:6511   */\n      tag_205\n        /* \"#utility.yul\":6507:6510   */\n      dup3\n        /* \"#utility.yul\":6363:6511   */\n      tag_197\n      jump\t// in\n    tag_205:\n        /* \"#utility.yul\":6356:6511   */\n      swap2\n      pop\n        /* \"#utility.yul\":6528:6531   */\n      dup2\n        /* \"#utility.yul\":6521:6531   */\n      swap1\n      pop\n        /* \"#utility.yul\":6345:6537   */\n      swap2\n      swap1\n      pop\n      jump\t// out\n        /* \"#utility.yul\":6543:6765   */\n    tag_30:\n      0x00\n        /* \"#utility.yul\":6674:6676   */\n      0x20\n        /* \"#utility.yul\":6663:6672   */\n      dup3\n        /* \"#utility.yul\":6659:6677   */\n      add\n        /* \"#utility.yul\":6651:6677   */\n      swap1\n      pop\n        /* \"#utility.yul\":6687:6758   */\n      tag_207\n        /* \"#utility.yul\":6755:6756   */\n      0x00\n        /* \"#utility.yul\":6744:6753   */\n      dup4\n        /* \"#utility.yul\":6740:6757   */\n      add\n        /* \"#utility.yul\":6731:6737   */\n      dup5\n        /* \"#utility.yul\":6687:6758   */\n      tag_152\n      jump\t// in\n    tag_207:\n        /* \"#utility.yul\":6641:6765   */\n      swap3\n      swap2\n      pop\n      pop\n      jump\t// out\n        /* \"#utility.yul\":6771:6981   */\n    tag_16:\n      0x00\n        /* \"#utility.yul\":6896:6898   */\n      0x20\n        /* \"#utility.yul\":6885:6894   */\n      dup3\n        /* \"#utility.yul\":6881:6899   */\n      add\n        /* \"#utility.yul\":6873:6899   */\n      swap1\n      pop\n        /* \"#utility.yul\":6909:6974   */\n      tag_209\n        /* \"#utility.yul\":6971:6972   */\n      0x00\n        /* \"#utility.yul\":6960:6969   */\n      dup4\n        /* \"#utility.yul\":6956:6973   */\n      add\n        /* \"#utility.yul\":6947:6953   */\n      dup5\n        /* \"#utility.yul\":6909:6974   */\n      tag_156\n      jump\t// in\n    tag_209:\n        /* \"#utility.yul\":6863:6981   */\n      swap3\n      swap2\n      pop\n      pop\n      jump\t// out\n        /* \"#utility.yul\":6987:7300   */\n    tag_26:\n      0x00\n        /* \"#utility.yul\":7138:7140   */\n      0x20\n        /* \"#utility.yul\":7127:7136   */\n      dup3\n        /* \"#utility.yul\":7123:7141   */\n      add\n        /* \"#utility.yul\":7115:7141   */\n      swap1\n      pop\n        /* \"#utility.yul\":7187:7196   */\n      dup2\n        /* \"#utility.yul\":7181:7185   */\n      dup2\n        /* \"#utility.yul\":7177:7197   */\n      sub\n        /* \"#utility.yul\":7173:7174   */\n      0x00\n        /* \"#utility.yul\":7162:7171   */\n      dup4\n        /* \"#utility.yul\":7158:7175   */\n      add\n        /* \"#utility.yul\":7151:7198   */\n      mstore\n        /* \"#utility.yul\":7215:7293   */\n      tag_211\n        /* \"#utility.yul\":7288:7292   */\n      dup2\n        /* \"#utility.yul\":7279:7285   */\n      dup5\n        /* \"#utility.yul\":7215:7293   */\n      tag_160\n      jump\t// in\n    tag_211:\n        /* \"#utility.yul\":7207:7293   */\n      swap1\n      pop\n        /* \"#utility.yul\":7105:7300   */\n      swap3\n      swap2\n      pop\n      pop\n      jump\t// out\n        /* \"#utility.yul\":7306:7820   */\n    tag_104:\n      0x00\n        /* \"#utility.yul\":7505:7507   */\n      0x40\n        /* \"#utility.yul\":7494:7503   */\n      dup3\n        /* \"#utility.yul\":7490:7508   */\n      add\n        /* \"#utility.yul\":7482:7508   */\n      swap1\n      pop\n        /* \"#utility.yul\":7554:7563   */\n      dup2\n        /* \"#utility.yul\":7548:7552   */\n      dup2\n        /* \"#utility.yul\":7544:7564   */\n      sub\n        /* \"#utility.yul\":7540:7541   */\n      0x00\n        /* \"#utility.yul\":7529:7538   */\n      dup4\n        /* \"#utility.yul\":7525:7542   */\n      add\n        /* \"#utility.yul\":7518:7565   */\n      mstore\n        /* \"#utility.yul\":7582:7660   */\n      tag_213\n        /* \"#utility.yul\":7655:7659   */\n      dup2\n        /* \"#utility.yul\":7646:7652   */\n      dup6\n        /* \"#utility.yul\":7582:7660   */\n      tag_160\n      jump\t// in\n    tag_213:\n        /* \"#utility.yul\":7574:7660   */\n      swap1\n      pop\n        /* \"#utility.yul\":7707:7716   */\n      dup2\n        /* \"#utility.yul\":7701:7705   */\n      dup2\n        /* \"#utility.yul\":7697:7717   */\n      sub\n        /* \"#utility.yul\":7692:7694   */\n      0x20\n        /* \"#utility.yul\":7681:7690   */\n      dup4\n        /* \"#utility.yul\":7677:7695   */\n      add\n        /* \"#utility.yul\":7670:7718   */\n      mstore\n        /* \"#utility.yul\":7735:7813   */\n      tag_214\n        /* \"#utility.yul\":7808:7812   */\n      dup2\n        /* \"#utility.yul\":7799:7805   */\n      dup5\n        /* \"#utility.yul\":7735:7813   */\n      tag_160\n      jump\t// in\n    tag_214:\n        /* \"#utility.yul\":7727:7813   */\n      swap1\n      pop\n        /* \"#utility.yul\":7472:7820   */\n      swap4\n      swap3\n      pop\n      pop\n      pop\n      jump\t// out\n        /* \"#utility.yul\":7826:8438   */\n    tag_38:\n      0x00\n        /* \"#utility.yul\":8047:8049   */\n      0x60\n        /* \"#utility.yul\":8036:8045   */\n      dup3\n        /* \"#utility.yul\":8032:8050   */\n      add\n        /* \"#utility.yul\":8024:8050   */\n      swap1\n      pop\n        /* \"#utility.yul\":8096:8105   */\n      dup2\n        /* \"#utility.yul\":8090:8094   */\n      dup2\n        /* \"#utility.yul\":8086:8106   */\n      sub\n        /* \"#utility.yul\":8082:8083   */\n      0x00\n        /* \"#utility.yul\":8071:8080   */\n      dup4\n        /* \"#utility.yul\":8067:8084   */\n      add\n        /* \"#utility.yul\":8060:8107   */\n      mstore\n        /* \"#utility.yul\":8124:8202   */\n      tag_216\n        /* \"#utility.yul\":8197:8201   */\n      dup2\n        /* \"#utility.yul\":8188:8194   */\n      dup7\n        /* \"#utility.yul\":8124:8202   */\n      tag_160\n      jump\t// in\n    tag_216:\n        /* \"#utility.yul\":8116:8202   */\n      swap1\n      pop\n        /* \"#utility.yul\":8249:8258   */\n      dup2\n        /* \"#utility.yul\":8243:8247   */\n      dup2\n        /* \"#utility.yul\":8239:8259   */\n      sub\n        /* \"#utility.yul\":8234:8236   */\n      0x20\n        /* \"#utility.yul\":8223:8232   */\n      dup4\n        /* \"#utility.yul\":8219:8237   */\n      add\n        /* \"#utility.yul\":8212:8260   */\n      mstore\n        /* \"#utility.yul\":8277:8355   */\n      tag_217\n        /* \"#utility.yul\":8350:8354   */\n      dup2\n        /* \"#utility.yul\":8341:8347   */\n      dup6\n        /* \"#utility.yul\":8277:8355   */\n      tag_160\n      jump\t// in\n    tag_217:\n        /* \"#utility.yul\":8269:8355   */\n      swap1\n      pop\n        /* \"#utility.yul\":8365:8431   */\n      tag_218\n        /* \"#utility.yul\":8427:8429   */\n      0x40\n        /* \"#utility.yul\":8416:8425   */\n      dup4\n        /* \"#utility.yul\":8412:8430   */\n      add\n        /* \"#utility.yul\":8403:8409   */\n      dup5\n        /* \"#utility.yul\":8365:8431   */\n      tag_156\n      jump\t// in\n    tag_218:\n        /* \"#utility.yul\":8014:8438   */\n      swap5\n      swap4\n      pop\n      pop\n      pop\n      pop\n      jump\t// out\n        /* \"#utility.yul\":8444:8863   */\n    tag_75:\n      0x00\n        /* \"#utility.yul\":8648:8650   */\n      0x20\n        /* \"#utility.yul\":8637:8646   */\n      dup3\n        /* \"#utility.yul\":8633:8651   */\n      add\n        /* \"#utility.yul\":8625:8651   */\n      swap1\n      pop\n        /* \"#utility.yul\":8697:8706   */\n      dup2\n        /* \"#utility.yul\":8691:8695   */\n      dup2\n        /* \"#utility.yul\":8687:8707   */\n      sub\n        /* \"#utility.yul\":8683:8684   */\n      0x00\n        /* \"#utility.yul\":8672:8681   */\n      dup4\n        /* \"#utility.yul\":8668:8685   */\n      add\n        /* \"#utility.yul\":8661:8708   */\n      mstore\n        /* \"#utility.yul\":8725:8856   */\n      tag_220\n        /* \"#utility.yul\":8851:8855   */\n      dup2\n        /* \"#utility.yul\":8725:8856   */\n      tag_188\n      jump\t// in\n    tag_220:\n        /* \"#utility.yul\":8717:8856   */\n      swap1\n      pop\n        /* \"#utility.yul\":8615:8863   */\n      swap2\n      swap1\n      pop\n      jump\t// out\n        /* \"#utility.yul\":8869:9288   */\n    tag_99:\n      0x00\n        /* \"#utility.yul\":9073:9075   */\n      0x20\n        /* \"#utility.yul\":9062:9071   */\n      dup3\n        /* \"#utility.yul\":9058:9076   */\n      add\n        /* \"#utility.yul\":9050:9076   */\n      swap1\n      pop\n        /* \"#utility.yul\":9122:9131   */\n      dup2\n        /* \"#utility.yul\":9116:9120   */\n      dup2\n        /* \"#utility.yul\":9112:9132   */\n      sub\n        /* \"#utility.yul\":9108:9109   */\n      0x00\n        /* \"#utility.yul\":9097:9106   */\n      dup4\n        /* \"#utility.yul\":9093:9110   */\n      add\n        /* \"#utility.yul\":9086:9133   */\n      mstore\n        /* \"#utility.yul\":9150:9281   */\n      tag_222\n        /* \"#utility.yul\":9276:9280   */\n      dup2\n        /* \"#utility.yul\":9150:9281   */\n      tag_191\n      jump\t// in\n    tag_222:\n        /* \"#utility.yul\":9142:9281   */\n      swap1\n      pop\n        /* \"#utility.yul\":9040:9288   */\n      swap2\n      swap1\n      pop\n      jump\t// out\n        /* \"#utility.yul\":9294:9713   */\n    tag_46:\n      0x00\n        /* \"#utility.yul\":9498:9500   */\n      0x20\n        /* \"#utility.yul\":9487:9496   */\n      dup3\n        /* \"#utility.yul\":9483:9501   */\n      add\n        /* \"#utility.yul\":9475:9501   */\n      swap1\n      pop\n        /* \"#utility.yul\":9547:9556   */\n      dup2\n        /* \"#utility.yul\":9541:9545   */\n      dup2\n        /* \"#utility.yul\":9537:9557   */\n      sub\n        /* \"#utility.yul\":9533:9534   */\n      0x00\n        /* \"#utility.yul\":9522:9531   */\n      dup4\n        /* \"#utility.yul\":9518:9535   */\n      add\n        /* \"#utility.yul\":9511:9558   */\n      mstore\n        /* \"#utility.yul\":9575:9706   */\n      tag_224\n        /* \"#utility.yul\":9701:9705   */\n      dup2\n        /* \"#utility.yul\":9575:9706   */\n      tag_194\n      jump\t// in\n    tag_224:\n        /* \"#utility.yul\":9567:9706   */\n      swap1\n      pop\n        /* \"#utility.yul\":9465:9713   */\n      swap2\n      swap1\n      pop\n      jump\t// out\n        /* \"#utility.yul\":9719:10002   */\n    tag_125:\n      0x00\n        /* \"#utility.yul\":9785:9787   */\n      0x40\n        /* \"#utility.yul\":9779:9788   */\n      mload\n        /* \"#utility.yul\":9769:9788   */\n      swap1\n      pop\n        /* \"#utility.yul\":9827:9831   */\n      dup2\n        /* \"#utility.yul\":9819:9825   */\n      dup2\n        /* \"#utility.yul\":9815:9832   */\n      add\n        /* \"#utility.yul\":9934:9940   */\n      dup2\n        /* \"#utility.yul\":9922:9932   */\n      dup2\n        /* \"#utility.yul\":9919:9941   */\n      lt\n        /* \"#utility.yul\":9898:9916   */\n      0xffffffffffffffff\n        /* \"#utility.yul\":9886:9896   */\n      dup3\n        /* \"#utility.yul\":9883:9917   */\n      gt\n        /* \"#utility.yul\":9880:9942   */\n      or\n        /* \"#utility.yul\":9877:9879   */\n      iszero\n      tag_226\n      jumpi\n        /* \"#utility.yul\":9945:9963   */\n      tag_227\n      tag_228\n      jump\t// in\n    tag_227:\n        /* \"#utility.yul\":9877:9879   */\n    tag_226:\n        /* \"#utility.yul\":9985:9995   */\n      dup1\n        /* \"#utility.yul\":9981:9983   */\n      0x40\n        /* \"#utility.yul\":9974:9996   */\n      mstore\n        /* \"#utility.yul\":9759:10002   */\n      pop\n      swap2\n      swap1\n      pop\n      jump\t// out\n        /* \"#utility.yul\":10008:10340   */\n    tag_124:\n      0x00\n        /* \"#utility.yul\":10160:10178   */\n      0xffffffffffffffff\n        /* \"#utility.yul\":10152:10158   */\n      dup3\n        /* \"#utility.yul\":10149:10179   */\n      gt\n        /* \"#utility.yul\":10146:10148   */\n      iszero\n      tag_230\n      jumpi\n        /* \"#utility.yul\":10182:10200   */\n      tag_231\n      tag_228\n      jump\t// in\n    tag_231:\n        /* \"#utility.yul\":10146:10148   */\n    tag_230:\n        /* \"#utility.yul\":10267:10271   */\n      0x1f\n        /* \"#utility.yul\":10263:10272   */\n      not\n        /* \"#utility.yul\":10256:10260   */\n      0x1f\n        /* \"#utility.yul\":10248:10254   */\n      dup4\n        /* \"#utility.yul\":10244:10261   */\n      add\n        /* \"#utility.yul\":10240:10273   */\n      and\n        /* \"#utility.yul\":10232:10273   */\n      swap1\n      pop\n        /* \"#utility.yul\":10328:10332   */\n      0x20\n        /* \"#utility.yul\":10322:10326   */\n      dup2\n        /* \"#utility.yul\":10318:10333   */\n      add\n        /* \"#utility.yul\":10310:10333   */\n      swap1\n      pop\n        /* \"#utility.yul\":10075:10340   */\n      swap2\n      swap1\n      pop\n      jump\t// out\n        /* \"#utility.yul\":10346:10487   */\n    tag_184:\n      0x00\n        /* \"#utility.yul\":10418:10421   */\n      dup2\n        /* \"#utility.yul\":10410:10421   */\n      swap1\n      pop\n        /* \"#utility.yul\":10441:10444   */\n      dup2\n        /* \"#utility.yul\":10438:10439   */\n      0x00\n        /* \"#utility.yul\":10431:10445   */\n      mstore\n        /* \"#utility.yul\":10475:10479   */\n      0x20\n        /* \"#utility.yul\":10472:10473   */\n      0x00\n        /* \"#utility.yul\":10462:10480   */\n      keccak256\n        /* \"#utility.yul\":10454:10480   */\n      swap1\n      pop\n        /* \"#utility.yul\":10400:10487   */\n      swap2\n      swap1\n      pop\n      jump\t// out\n        /* \"#utility.yul\":10493:10592   */\n    tag_163:\n      0x00\n        /* \"#utility.yul\":10579:10584   */\n      dup2\n        /* \"#utility.yul\":10573:10585   */\n      mload\n        /* \"#utility.yul\":10563:10585   */\n      swap1\n      pop\n        /* \"#utility.yul\":10552:10592   */\n      swap2\n      swap1\n      pop\n      jump\t// out\n        /* \"#utility.yul\":10598:10767   */\n    tag_165:\n      0x00\n        /* \"#utility.yul\":10716:10722   */\n      dup3\n        /* \"#utility.yul\":10711:10714   */\n      dup3\n        /* \"#utility.yul\":10704:10723   */\n      mstore\n        /* \"#utility.yul\":10756:10760   */\n      0x20\n        /* \"#utility.yul\":10751:10754   */\n      dup3\n        /* \"#utility.yul\":10747:10761   */\n      add\n        /* \"#utility.yul\":10732:10761   */\n      swap1\n      pop\n        /* \"#utility.yul\":10694:10767   */\n      swap3\n      swap2\n      pop\n      pop\n      jump\t// out\n        /* \"#utility.yul\":10773:10921   */\n    tag_174:\n      0x00\n        /* \"#utility.yul\":10912:10915   */\n      dup2\n        /* \"#utility.yul\":10897:10915   */\n      swap1\n      pop\n        /* \"#utility.yul\":10887:10921   */\n      swap3\n      swap2\n      pop\n      pop\n      jump\t// out\n        /* \"#utility.yul\":10927:11023   */\n    tag_155:\n      0x00\n        /* \"#utility.yul\":10993:11017   */\n      tag_237\n        /* \"#utility.yul\":11011:11016   */\n      dup3\n        /* \"#utility.yul\":10993:11017   */\n      tag_238\n      jump\t// in\n    tag_237:\n        /* \"#utility.yul\":10982:11017   */\n      swap1\n      pop\n        /* \"#utility.yul\":10972:11023   */\n      swap2\n      swap1\n      pop\n      jump\t// out\n        /* \"#utility.yul\":11029:11119   */\n    tag_159:\n      0x00\n        /* \"#utility.yul\":11106:11111   */\n      dup2\n        /* \"#utility.yul\":11099:11112   */\n      iszero\n        /* \"#utility.yul\":11092:11113   */\n      iszero\n        /* \"#utility.yul\":11081:11113   */\n      swap1\n      pop\n        /* \"#utility.yul\":11071:11119   */\n      swap2\n      swap1\n      pop\n      jump\t// out\n        /* \"#utility.yul\":11125:11251   */\n    tag_238:\n      0x00\n        /* \"#utility.yul\":11202:11244   */\n      0xffffffffffffffffffffffffffffffffffffffff\n        /* \"#utility.yul\":11195:11200   */\n      dup3\n        /* \"#utility.yul\":11191:11245   */\n      and\n        /* \"#utility.yul\":11180:11245   */\n      swap1\n      pop\n        /* \"#utility.yul\":11170:11251   */\n      swap2\n      swap1\n      pop\n      jump\t// out\n        /* \"#utility.yul\":11257:11411   */\n    tag_128:\n        /* \"#utility.yul\":11341:11347   */\n      dup3\n        /* \"#utility.yul\":11336:11339   */\n      dup2\n        /* \"#utility.yul\":11331:11334   */\n      dup4\n        /* \"#utility.yul\":11318:11348   */\n      calldatacopy\n        /* \"#utility.yul\":11403:11404   */\n      0x00\n        /* \"#utility.yul\":11394:11400   */\n      dup4\n        /* \"#utility.yul\":11389:11392   */\n      dup4\n        /* \"#utility.yul\":11385:11401   */\n      add\n        /* \"#utility.yul\":11378:11405   */\n      mstore\n        /* \"#utility.yul\":11308:11411   */\n      pop\n      pop\n      pop\n      jump\t// out\n        /* \"#utility.yul\":11417:11724   */\n    tag_167:\n        /* \"#utility.yul\":11485:11486   */\n      0x00\n        /* \"#utility.yul\":11495:11608   */\n    tag_243:\n        /* \"#utility.yul\":11509:11515   */\n      dup4\n        /* \"#utility.yul\":11506:11507   */\n      dup2\n        /* \"#utility.yul\":11503:11516   */\n      lt\n        /* \"#utility.yul\":11495:11608   */\n      iszero\n      tag_245\n      jumpi\n        /* \"#utility.yul\":11594:11595   */\n      dup1\n        /* \"#utility.yul\":11589:11592   */\n      dup3\n        /* \"#utility.yul\":11585:11596   */\n      add\n        /* \"#utility.yul\":11579:11597   */\n      mload\n        /* \"#utility.yul\":11575:11576   */\n      dup2\n        /* \"#utility.yul\":11570:11573   */\n      dup5\n        /* \"#utility.yul\":11566:11577   */\n      add\n        /* \"#utility.yul\":11559:11598   */\n      mstore\n        /* \"#utility.yul\":11531:11533   */\n      0x20\n        /* \"#utility.yul\":11528:11529   */\n      dup2\n        /* \"#utility.yul\":11524:11534   */\n      add\n        /* \"#utility.yul\":11519:11534   */\n      swap1\n      pop\n        /* \"#utility.yul\":11495:11608   */\n      jump(tag_243)\n    tag_245:\n        /* \"#utility.yul\":11626:11632   */\n      dup4\n        /* \"#utility.yul\":11623:11624   */\n      dup2\n        /* \"#utility.yul\":11620:11633   */\n      gt\n        /* \"#utility.yul\":11617:11619   */\n      iszero\n      tag_246\n      jumpi\n        /* \"#utility.yul\":11706:11707   */\n      0x00\n        /* \"#utility.yul\":11697:11703   */\n      dup5\n        /* \"#utility.yul\":11692:11695   */\n      dup5\n        /* \"#utility.yul\":11688:11704   */\n      add\n        /* \"#utility.yul\":11681:11708   */\n      mstore\n        /* \"#utility.yul\":11617:11619   */\n    tag_246:\n        /* \"#utility.yul\":11466:11724   */\n      pop\n      pop\n      pop\n      pop\n      jump\t// out\n        /* \"#utility.yul\":11730:12050   */\n    tag_67:\n      0x00\n        /* \"#utility.yul\":11811:11812   */\n      0x02\n        /* \"#utility.yul\":11805:11809   */\n      dup3\n        /* \"#utility.yul\":11801:11813   */\n      div\n        /* \"#utility.yul\":11791:11813   */\n      swap1\n      pop\n        /* \"#utility.yul\":11858:11859   */\n      0x01\n        /* \"#utility.yul\":11852:11856   */\n      dup3\n        /* \"#utility.yul\":11848:11860   */\n      and\n        /* \"#utility.yul\":11879:11897   */\n      dup1\n        /* \"#utility.yul\":11869:11871   */\n      tag_248\n      jumpi\n        /* \"#utility.yul\":11935:11939   */\n      0x7f\n        /* \"#utility.yul\":11927:11933   */\n      dup3\n        /* \"#utility.yul\":11923:11940   */\n      and\n        /* \"#utility.yul\":11913:11940   */\n      swap2\n      pop\n        /* \"#utility.yul\":11869:11871   */\n    tag_248:\n        /* \"#utility.yul\":11997:11999   */\n      0x20\n        /* \"#utility.yul\":11989:11995   */\n      dup3\n        /* \"#utility.yul\":11986:12000   */\n      lt\n        /* \"#utility.yul\":11966:11984   */\n      dup2\n        /* \"#utility.yul\":11963:12001   */\n      eq\n        /* \"#utility.yul\":11960:11962   */\n      iszero\n      tag_249\n      jumpi\n        /* \"#utility.yul\":12016:12034   */\n      tag_250\n      tag_251\n      jump\t// in\n    tag_250:\n        /* \"#utility.yul\":11960:11962   */\n    tag_249:\n        /* \"#utility.yul\":11781:12050   */\n      pop\n      swap2\n      swap1\n      pop\n      jump\t// out\n        /* \"#utility.yul\":12056:12236   */\n    tag_251:\n        /* \"#utility.yul\":12104:12181   */\n      0x4e487b7100000000000000000000000000000000000000000000000000000000\n        /* \"#utility.yul\":12101:12102   */\n      0x00\n        /* \"#utility.yul\":12094:12182   */\n      mstore\n        /* \"#utility.yul\":12201:12205   */\n      0x22\n        /* \"#utility.yul\":12198:12199   */\n      0x04\n        /* \"#utility.yul\":12191:12206   */\n      mstore\n        /* \"#utility.yul\":12225:12229   */\n      0x24\n        /* \"#utility.yul\":12222:12223   */\n      0x00\n        /* \"#utility.yul\":12215:12230   */\n      revert\n        /* \"#utility.yul\":12242:12422   */\n    tag_228:\n        /* \"#utility.yul\":12290:12367   */\n      0x4e487b7100000000000000000000000000000000000000000000000000000000\n        /* \"#utility.yul\":12287:12288   */\n      0x00\n        /* \"#utility.yul\":12280:12368   */\n      mstore\n        /* \"#utility.yul\":12387:12391   */\n      0x41\n        /* \"#utility.yul\":12384:12385   */\n      0x04\n        /* \"#utility.yul\":12377:12392   */\n      mstore\n        /* \"#utility.yul\":12411:12415   */\n      0x24\n        /* \"#utility.yul\":12408:12409   */\n      0x00\n        /* \"#utility.yul\":12401:12416   */\n      revert\n        /* \"#utility.yul\":12428:12530   */\n    tag_169:\n      0x00\n        /* \"#utility.yul\":12520:12522   */\n      0x1f\n        /* \"#utility.yul\":12516:12523   */\n      not\n        /* \"#utility.yul\":12511:12513   */\n      0x1f\n        /* \"#utility.yul\":12504:12509   */\n      dup4\n        /* \"#utility.yul\":12500:12514   */\n      add\n        /* \"#utility.yul\":12496:12524   */\n      and\n        /* \"#utility.yul\":12486:12524   */\n      swap1\n      pop\n        /* \"#utility.yul\":12476:12530   */\n      swap2\n      swap1\n      pop\n      jump\t// out\n        /* \"#utility.yul\":12536:12658   */\n    tag_132:\n        /* \"#utility.yul\":12609:12633   */\n      tag_256\n        /* \"#utility.yul\":12627:12632   */\n      dup2\n        /* \"#utility.yul\":12609:12633   */\n      tag_155\n      jump\t// in\n    tag_256:\n        /* \"#utility.yul\":12602:12607   */\n      dup2\n        /* \"#utility.yul\":12599:12634   */\n      eq\n        /* \"#utility.yul\":12589:12591   */\n      tag_257\n      jumpi\n        /* \"#utility.yul\":12648:12649   */\n      0x00\n        /* \"#utility.yul\":12645:12646   */\n      dup1\n        /* \"#utility.yul\":12638:12650   */\n      revert\n        /* \"#utility.yul\":12589:12591   */\n    tag_257:\n        /* \"#utility.yul\":12579:12658   */\n      pop\n      jump\t// out\n\n    auxdata: 0xa26469706673582212208d6bbf6f8443145a6bee68178731a0c41c3171b4d773d924e034c9f91a17092e64736f6c63430008000033\n}\n",
				"bytecode": {
					"linkReferences": {},
					"object": "608060405234801561001057600080fd5b5033600160006101000a81548173ffffffffffffffffffffffffffffffffffffffff021916908373ffffffffffffffffffffffffffffffffffffffff160217905550611363806100616000396000f3fe608060405234801561001057600080fd5b506004361061007d5760003560e01c80638da5cb5b1161005b5780638da5cb5b146101125780639857518814610130578063a87430ba1461014c578063d7554a681461017e5761007d565b80630f0aff1b1461008257806319c3026f146100b257806327820851146100e2575b600080fd5b61009c60048036038101906100979190610ce1565b61019a565b6040516100a9919061103f565b60405180910390f35b6100cc60048036038101906100c79190610ce1565b6102c3565b6040516100d9919061103f565b60405180910390f35b6100fc60048036038101906100f79190610cb8565b610480565b604051610109919061105a565b60405180910390f35b61011a6105e3565b6040516101279190611024565b60405180910390f35b61014a60048036038101906101459190610cb8565b610609565b005b61016660048036038101906101619190610cb8565b6107e4565b604051610175939291906110b3565b60405180910390f35b61019860048036038101906101939190610d35565b61092b565b005b6000826000808273ffffffffffffffffffffffffffffffffffffffff1673ffffffffffffffffffffffffffffffffffffffff16815260200190815260200160002060020160009054906101000a900460ff1661022b576040517f08c379a000000000000000000000000000000000000000000000000000000000815260040161022290611138565b60405180910390fd5b8260405160200161023c9190610fe1565b604051602081830303815290604052805190602001206000808673ffffffffffffffffffffffffffffffffffffffff1673ffffffffffffffffffffffffffffffffffffffff1681526020019081526020016000206000016040516020016102a39190610ff8565b604051602081830303815290604052805190602001201491505092915050565b6000826000808273ffffffffffffffffffffffffffffffffffffffff1673ffffffffffffffffffffffffffffffffffffffff16815260200190815260200160002060020160009054906101000a900460ff16610354576040517f08c379a000000000000000000000000000000000000000000000000000000000815260040161034b90611138565b60405180910390fd5b826040516020016103659190610fe1565b604051602081830303815290604052805190602001206000808673ffffffffffffffffffffffffffffffffffffffff1673ffffffffffffffffffffffffffffffffffffffff1681526020019081526020016000206000016040516020016103cc9190610ff8565b60405160208183030381529060405280519060200120148061047757506040516020016103f89061100f565b604051602081830303815290604052805190602001206000808673ffffffffffffffffffffffffffffffffffffffff1673ffffffffffffffffffffffffffffffffffffffff16815260200190815260200160002060000160405160200161045f9190610ff8565b60405160208183030381529060405280519060200120145b91505092915050565b6060816000808273ffffffffffffffffffffffffffffffffffffffff1673ffffffffffffffffffffffffffffffffffffffff16815260200190815260200160002060020160009054906101000a900460ff16610511576040517f08c379a000000000000000000000000000000000000000000000000000000000815260040161050890611138565b60405180910390fd5b6000808473ffffffffffffffffffffffffffffffffffffffff1673ffffffffffffffffffffffffffffffffffffffff168152602001908152602001600020600001805461055d90611275565b80601f016020809104026020016040519081016040528092919081815260200182805461058990611275565b80156105d65780601f106105ab576101008083540402835291602001916105d6565b820191906000526020600020905b8154815290600101906020018083116105b957829003601f168201915b5050505050915050919050565b600160009054906101000a900473ffffffffffffffffffffffffffffffffffffffff1681565b600160009054906101000a900473ffffffffffffffffffffffffffffffffffffffff1673ffffffffffffffffffffffffffffffffffffffff163373ffffffffffffffffffffffffffffffffffffffff1614610699576040517f08c379a0000000000000000000000000000000000000000000000000000000008152600401610690906110f8565b60405180910390fd5b806000808273ffffffffffffffffffffffffffffffffffffffff1673ffffffffffffffffffffffffffffffffffffffff16815260200190815260200160002060020160009054906101000a900460ff16610728576040517f08c379a000000000000000000000000000000000000000000000000000000000815260040161071f90611138565b60405180910390fd5b6000808373ffffffffffffffffffffffffffffffffffffffff1673ffffffffffffffffffffffffffffffffffffffff168152602001908152602001600020600080820160006107779190610b58565b6001820160006107879190610b58565b6002820160006101000a81549060ff021916905550508173ffffffffffffffffffffffffffffffffffffffff167fe9dce8c992623ce791725b21e857e33248d1f190a25b5168313420eebdaae99d60405160405180910390a25050565b600060205280600052604060002060009150905080600001805461080790611275565b80601f016020809104026020016040519081016040528092919081815260200182805461083390611275565b80156108805780601f1061085557610100808354040283529160200191610880565b820191906000526020600020905b81548152906001019060200180831161086357829003601f168201915b50505050509080600101805461089590611275565b80601f01602080910402602001604051908101604052809291908181526020018280546108c190611275565b801561090e5780601f106108e35761010080835404028352916020019161090e565b820191906000526020600020905b8154815290600101906020018083116108f157829003601f168201915b5050505050908060020160009054906101000a900460ff16905083565b600160009054906101000a900473ffffffffffffffffffffffffffffffffffffffff1673ffffffffffffffffffffffffffffffffffffffff163373ffffffffffffffffffffffffffffffffffffffff16146109bb576040517f08c379a00000000000000000000000000000000000000000000000000000000081526004016109b2906110f8565b60405180910390fd5b6000808473ffffffffffffffffffffffffffffffffffffffff1673ffffffffffffffffffffffffffffffffffffffff16815260200190815260200160002060020160009054906101000a900460ff1615610a4a576040517f08c379a0000000000000000000000000000000000000000000000000000000008152600401610a4190611118565b60405180910390fd5b6040518060600160405280838152602001828152602001600115158152506000808573ffffffffffffffffffffffffffffffffffffffff1673ffffffffffffffffffffffffffffffffffffffff1681526020019081526020016000206000820151816000019080519060200190610ac2929190610b98565b506020820151816001019080519060200190610adf929190610b98565b5060408201518160020160006101000a81548160ff0219169083151502179055509050508273ffffffffffffffffffffffffffffffffffffffff167f8eab1db142a914aff8b515eedb9177bd7effaef6d714c41e30bdf152067786078383604051610b4b92919061107c565b60405180910390a2505050565b508054610b6490611275565b6000825580601f10610b765750610b95565b601f016020900490600052602060002090810190610b949190610c1e565b5b50565b828054610ba490611275565b90600052602060002090601f016020900481019282610bc65760008555610c0d565b82601f10610bdf57805160ff1916838001178555610c0d565b82800160010185558215610c0d579182015b82811115610c0c578251825591602001919060010190610bf1565b5b509050610c1a9190610c1e565b5090565b5b80821115610c37576000816000905550600101610c1f565b5090565b6000610c4e610c4984611189565b611158565b905082815260208101848484011115610c6657600080fd5b610c71848285611233565b509392505050565b600081359050610c8881611316565b92915050565b600082601f830112610c9f57600080fd5b8135610caf848260208601610c3b565b91505092915050565b600060208284031215610cca57600080fd5b6000610cd884828501610c79565b91505092915050565b60008060408385031215610cf457600080fd5b6000610d0285828601610c79565b925050602083013567ffffffffffffffff811115610d1f57600080fd5b610d2b85828601610c8e565b9150509250929050565b600080600060608486031215610d4a57600080fd5b6000610d5886828701610c79565b935050602084013567ffffffffffffffff811115610d7557600080fd5b610d8186828701610c8e565b925050604084013567ffffffffffffffff811115610d9e57600080fd5b610daa86828701610c8e565b9150509250925092565b610dbd816111f5565b82525050565b610dcc81611207565b82525050565b6000610ddd826111ce565b610de781856111d9565b9350610df7818560208601611242565b610e0081611305565b840191505092915050565b6000610e16826111ce565b610e2081856111ea565b9350610e30818560208601611242565b80840191505092915050565b60008154610e4981611275565b610e5381866111ea565b94506001821660008114610e6e5760018114610e7f57610eb2565b60ff19831686528186019350610eb2565b610e88856111b9565b60005b83811015610eaa57815481890152600182019150602081019050610e8b565b838801955050505b50505092915050565b6000610ec86021836111d9565b91507f4f6e6c79206f776e65722063616e2063616c6c20746869732066756e6374696f60008301527f6e000000000000000000000000000000000000000000000000000000000000006020830152604082019050919050565b6000610f2e6013836111d9565b91507f5573657220616c726561647920657869737473000000000000000000000000006000830152602082019050919050565b6000610f6e6013836111d9565b91507f5573657220646f6573206e6f74206578697374000000000000000000000000006000830152602082019050919050565b6000610fae6005836111ea565b91507f61646d696e0000000000000000000000000000000000000000000000000000006000830152600582019050919050565b6000610fed8284610e0b565b915081905092915050565b60006110048284610e3c565b915081905092915050565b600061101a82610fa1565b9150819050919050565b60006020820190506110396000830184610db4565b92915050565b60006020820190506110546000830184610dc3565b92915050565b600060208201905081810360008301526110748184610dd2565b905092915050565b600060408201905081810360008301526110968185610dd2565b905081810360208301526110aa8184610dd2565b90509392505050565b600060608201905081810360008301526110cd8186610dd2565b905081810360208301526110e18185610dd2565b90506110f06040830184610dc3565b949350505050565b6000602082019050818103600083015261111181610ebb565b9050919050565b6000602082019050818103600083015261113181610f21565b9050919050565b6000602082019050818103600083015261115181610f61565b9050919050565b6000604051905081810181811067ffffffffffffffff8211171561117f5761117e6112d6565b5b8060405250919050565b600067ffffffffffffffff8211156111a4576111a36112d6565b5b601f19601f8301169050602081019050919050565b60008190508160005260206000209050919050565b600081519050919050565b600082825260208201905092915050565b600081905092915050565b600061120082611213565b9050919050565b60008115159050919050565b600073ffffffffffffffffffffffffffffffffffffffff82169050919050565b82818337600083830152505050565b60005b83811015611260578082015181840152602081019050611245565b8381111561126f576000848401525b50505050565b6000600282049050600182168061128d57607f821691505b602082108114156112a1576112a06112a7565b5b50919050565b7f4e487b7100000000000000000000000000000000000000000000000000000000600052602260045260246000fd5b7f4e487b7100000000000000000000000000000000000000000000000000000000600052604160045260246000fd5b6000601f19601f8301169050919050565b61131f816111f5565b811461132a57600080fd5b5056fea26469706673582212208d6bbf6f8443145a6bee68178731a0c41c3171b4d773d924e034c9f91a17092e64736f6c63430008000033",
					"opcodes": "PUSH1 0x80 PUSH1 0x40 MSTORE CALLVALUE DUP1 ISZERO PUSH2 0x10 JUMPI PUSH1 0x0 DUP1 REVERT JUMPDEST POP CALLER PUSH1 0x1 PUSH1 0x0 PUSH2 0x100 EXP DUP2 SLOAD DUP2 PUSH20 0xFFFFFFFFFFFFFFFFFFFFFFFFFFFFFFFFFFFFFFFF MUL NOT AND SWAP1 DUP4 PUSH20 0xFFFFFFFFFFFFFFFFFFFFFFFFFFFFFFFFFFFFFFFF AND MUL OR SWAP1 SSTORE POP PUSH2 0x1363 DUP1 PUSH2 0x61 PUSH1 0x0 CODECOPY PUSH1 0x0 RETURN INVALID PUSH1 0x80 PUSH1 0x40 MSTORE CALLVALUE DUP1 ISZERO PUSH2 0x10 JUMPI PUSH1 0x0 DUP1 REVERT JUMPDEST POP PUSH1 0x4 CALLDATASIZE LT PUSH2 0x7D JUMPI PUSH1 0x0 CALLDATALOAD PUSH1 0xE0 SHR DUP1 PUSH4 0x8DA5CB5B GT PUSH2 0x5B JUMPI DUP1 PUSH4 0x8DA5CB5B EQ PUSH2 0x112 JUMPI DUP1 PUSH4 0x98575188 EQ PUSH2 0x130 JUMPI DUP1 PUSH4 0xA87430BA EQ PUSH2 0x14C JUMPI DUP1 PUSH4 0xD7554A68 EQ PUSH2 0x17E JUMPI PUSH2 0x7D JUMP JUMPDEST DUP1 PUSH4 0xF0AFF1B EQ PUSH2 0x82 JUMPI DUP1 PUSH4 0x19C3026F EQ PUSH2 0xB2 JUMPI DUP1 PUSH4 0x27820851 EQ PUSH2 0xE2 JUMPI JUMPDEST PUSH1 0x0 DUP1 REVERT JUMPDEST PUSH2 0x9C PUSH1 0x4 DUP1 CALLDATASIZE SUB DUP2 ADD SWAP1 PUSH2 0x97 SWAP2 SWAP1 PUSH2 0xCE1 JUMP JUMPDEST PUSH2 0x19A JUMP JUMPDEST PUSH1 0x40 MLOAD PUSH2 0xA9 SWAP2 SWAP1 PUSH2 0x103F JUMP JUMPDEST PUSH1 0x40 MLOAD DUP1 SWAP2 SUB SWAP1 RETURN JUMPDEST PUSH2 0xCC PUSH1 0x4 DUP1 CALLDATASIZE SUB DUP2 ADD SWAP1 PUSH2 0xC7 SWAP2 SWAP1 PUSH2 0xCE1 JUMP JUMPDEST PUSH2 0x2C3 JUMP JUMPDEST PUSH1 0x40 MLOAD PUSH2 0xD9 SWAP2 SWAP1 PUSH2 0x103F JUMP JUMPDEST PUSH1 0x40 MLOAD DUP1 SWAP2 SUB SWAP1 RETURN JUMPDEST PUSH2 0xFC PUSH1 0x4 DUP1 CALLDATASIZE SUB DUP2 ADD SWAP1 PUSH2 0xF7 SWAP2 SWAP1 PUSH2 0xCB8 JUMP JUMPDEST PUSH2 0x480 JUMP JUMPDEST PUSH1 0x40 MLOAD PUSH2 0x109 SWAP2 SWAP1 PUSH2 0x105A JUMP JUMPDEST PUSH1 0x40 MLOAD DUP1 SWAP2 SUB SWAP1 RETURN JUMPDEST PUSH2 0x11A PUSH2 0x5E3 JUMP JUMPDEST PUSH1 0x40 MLOAD PUSH2 0x127 SWAP2 SWAP1 PUSH2 0x1024 JUMP JUMPDEST PUSH1 0x40 MLOAD DUP1 SWAP2 SUB SWAP1 RETURN JUMPDEST PUSH2 0x14A PUSH1 0x4 DUP1 CALLDATASIZE SUB DUP2 ADD SWAP1 PUSH2 0x145 SWAP2 SWAP1 PUSH2 0xCB8 JUMP JUMPDEST PUSH2 0x609 JUMP JUMPDEST STOP JUMPDEST PUSH2 0x166 PUSH1 0x4 DUP1 CALLDATASIZE SUB DUP2 ADD SWAP1 PUSH2 0x161 SWAP2 SWAP1 PUSH2 0xCB8 JUMP JUMPDEST PUSH2 0x7E4 JUMP JUMPDEST PUSH1 0x40 MLOAD PUSH2 0x175 SWAP4 SWAP3 SWAP2 SWAP1 PUSH2 0x10B3 JUMP JUMPDEST PUSH1 0x40 MLOAD DUP1 SWAP2 SUB SWAP1 RETURN JUMPDEST PUSH2 0x198 PUSH1 0x4 DUP1 CALLDATASIZE SUB DUP2 ADD SWAP1 PUSH2 0x193 SWAP2 SWAP1 PUSH2 0xD35 JUMP JUMPDEST PUSH2 0x92B JUMP JUMPDEST STOP JUMPDEST PUSH1 0x0 DUP3 PUSH1 0x0 DUP1 DUP3 PUSH20 0xFFFFFFFFFFFFFFFFFFFFFFFFFFFFFFFFFFFFFFFF AND PUSH20 0xFFFFFFFFFFFFFFFFFFFFFFFFFFFFFFFFFFFFFFFF AND DUP2 MSTORE PUSH1 0x20 ADD SWAP1 DUP2 MSTORE PUSH1 0x20 ADD PUSH1 0x0 KECCAK256 PUSH1 0x2 ADD PUSH1 0x0 SWAP1 SLOAD SWAP1 PUSH2 0x100 EXP SWAP1 DIV PUSH1 0xFF AND PUSH2 0x22B JUMPI PUSH1 0x40 MLOAD PUSH32 0x8C379A000000000000000000000000000000000000000000000000000000000 DUP2 MSTORE PUSH1 0x4 ADD PUSH2 0x222 SWAP1 PUSH2 0x1138 JUMP JUMPDEST PUSH1 0x40 MLOAD DUP1 SWAP2 SUB SWAP1 REVERT JUMPDEST DUP3 PUSH1 0x40 MLOAD PUSH1 0x20 ADD PUSH2 0x23C SWAP2 SWAP1 PUSH2 0xFE1 JUMP JUMPDEST PUSH1 0x40 MLOAD PUSH1 0x20 DUP2 DUP4 SUB SUB DUP2 MSTORE SWAP1 PUSH1 0x40 MSTORE DUP1 MLOAD SWAP1 PUSH1 0x20 ADD KECCAK256 PUSH1 0x0 DUP1 DUP7 PUSH20 0xFFFFFFFFFFFFFFFFFFFFFFFFFFFFFFFFFFFFFFFF AND PUSH20 0xFFFFFFFFFFFFFFFFFFFFFFFFFFFFFFFFFFFFFFFF AND DUP2 MSTORE PUSH1 0x20 ADD SWAP1 DUP2 MSTORE PUSH1 0x20 ADD PUSH1 0x0 KECCAK256 PUSH1 0x0 ADD PUSH1 0x40 MLOAD PUSH1 0x20 ADD PUSH2 0x2A3 SWAP2 SWAP1 PUSH2 0xFF8 JUMP JUMPDEST PUSH1 0x40 MLOAD PUSH1 0x20 DUP2 DUP4 SUB SUB DUP2 MSTORE SWAP1 PUSH1 0x40 MSTORE DUP1 MLOAD SWAP1 PUSH1 0x20 ADD KECCAK256 EQ SWAP2 POP POP SWAP3 SWAP2 POP POP JUMP JUMPDEST PUSH1 0x0 DUP3 PUSH1 0x0 DUP1 DUP3 PUSH20 0xFFFFFFFFFFFFFFFFFFFFFFFFFFFFFFFFFFFFFFFF AND PUSH20 0xFFFFFFFFFFFFFFFFFFFFFFFFFFFFFFFFFFFFFFFF AND DUP2 MSTORE PUSH1 0x20 ADD SWAP1 DUP2 MSTORE PUSH1 0x20 ADD PUSH1 0x0 KECCAK256 PUSH1 0x2 ADD PUSH1 0x0 SWAP1 SLOAD SWAP1 PUSH2 0x100 EXP SWAP1 DIV PUSH1 0xFF AND PUSH2 0x354 JUMPI PUSH1 0x40 MLOAD PUSH32 0x8C379A000000000000000000000000000000000000000000000000000000000 DUP2 MSTORE PUSH1 0x4 ADD PUSH2 0x34B SWAP1 PUSH2 0x1138 JUMP JUMPDEST PUSH1 0x40 MLOAD DUP1 SWAP2 SUB SWAP1 REVERT JUMPDEST DUP3 PUSH1 0x40 MLOAD PUSH1 0x20 ADD PUSH2 0x365 SWAP2 SWAP1 PUSH2 0xFE1 JUMP JUMPDEST PUSH1 0x40 MLOAD PUSH1 0x20 DUP2 DUP4 SUB SUB DUP2 MSTORE SWAP1 PUSH1 0x40 MSTORE DUP1 MLOAD SWAP1 PUSH1 0x20 ADD KECCAK256 PUSH1 0x0 DUP1 DUP7 PUSH20 0xFFFFFFFFFFFFFFFFFFFFFFFFFFFFFFFFFFFFFFFF AND PUSH20 0xFFFFFFFFFFFFFFFFFFFFFFFFFFFFFFFFFFFFFFFF AND DUP2 MSTORE PUSH1 0x20 ADD SWAP1 DUP2 MSTORE PUSH1 0x20 ADD PUSH1 0x0 KECCAK256 PUSH1 0x0 ADD PUSH1 0x40 MLOAD PUSH1 0x20 ADD PUSH2 0x3CC SWAP2 SWAP1 PUSH2 0xFF8 JUMP JUMPDEST PUSH1 0x40 MLOAD PUSH1 0x20 DUP2 DUP4 SUB SUB DUP2 MSTORE SWAP1 PUSH1 0x40 MSTORE DUP1 MLOAD SWAP1 PUSH1 0x20 ADD KECCAK256 EQ DUP1 PUSH2 0x477 JUMPI POP PUSH1 0x40 MLOAD PUSH1 0x20 ADD PUSH2 0x3F8 SWAP1 PUSH2 0x100F JUMP JUMPDEST PUSH1 0x40 MLOAD PUSH1 0x20 DUP2 DUP4 SUB SUB DUP2 MSTORE SWAP1 PUSH1 0x40 MSTORE DUP1 MLOAD SWAP1 PUSH1 0x20 ADD KECCAK256 PUSH1 0x0 DUP1 DUP7 PUSH20 0xFFFFFFFFFFFFFFFFFFFFFFFFFFFFFFFFFFFFFFFF AND PUSH20 0xFFFFFFFFFFFFFFFFFFFFFFFFFFFFFFFFFFFFFFFF AND DUP2 MSTORE PUSH1 0x20 ADD SWAP1 DUP2 MSTORE PUSH1 0x20 ADD PUSH1 0x0 KECCAK256 PUSH1 0x0 ADD PUSH1 0x40 MLOAD PUSH1 0x20 ADD PUSH2 0x45F SWAP2 SWAP1 PUSH2 0xFF8 JUMP JUMPDEST PUSH1 0x40 MLOAD PUSH1 0x20 DUP2 DUP4 SUB SUB DUP2 MSTORE SWAP1 PUSH1 0x40 MSTORE DUP1 MLOAD SWAP1 PUSH1 0x20 ADD KECCAK256 EQ JUMPDEST SWAP2 POP POP SWAP3 SWAP2 POP POP JUMP JUMPDEST PUSH1 0x60 DUP2 PUSH1 0x0 DUP1 DUP3 PUSH20 0xFFFFFFFFFFFFFFFFFFFFFFFFFFFFFFFFFFFFFFFF AND PUSH20 0xFFFFFFFFFFFFFFFFFFFFFFFFFFFFFFFFFFFFFFFF AND DUP2 MSTORE PUSH1 0x20 ADD SWAP1 DUP2 MSTORE PUSH1 0x20 ADD PUSH1 0x0 KECCAK256 PUSH1 0x2 ADD PUSH1 0x0 SWAP1 SLOAD SWAP1 PUSH2 0x100 EXP SWAP1 DIV PUSH1 0xFF AND PUSH2 0x511 JUMPI PUSH1 0x40 MLOAD PUSH32 0x8C379A000000000000000000000000000000000000000000000000000000000 DUP2 MSTORE PUSH1 0x4 ADD PUSH2 0x508 SWAP1 PUSH2 0x1138 JUMP JUMPDEST PUSH1 0x40 MLOAD DUP1 SWAP2 SUB SWAP1 REVERT JUMPDEST PUSH1 0x0 DUP1 DUP5 PUSH20 0xFFFFFFFFFFFFFFFFFFFFFFFFFFFFFFFFFFFFFFFF AND PUSH20 0xFFFFFFFFFFFFFFFFFFFFFFFFFFFFFFFFFFFFFFFF AND DUP2 MSTORE PUSH1 0x20 ADD SWAP1 DUP2 MSTORE PUSH1 0x20 ADD PUSH1 0x0 KECCAK256 PUSH1 0x0 ADD DUP1 SLOAD PUSH2 0x55D SWAP1 PUSH2 0x1275 JUMP JUMPDEST DUP1 PUSH1 0x1F ADD PUSH1 0x20 DUP1 SWAP2 DIV MUL PUSH1 0x20 ADD PUSH1 0x40 MLOAD SWAP1 DUP2 ADD PUSH1 0x40 MSTORE DUP1 SWAP3 SWAP2 SWAP1 DUP2 DUP2 MSTORE PUSH1 0x20 ADD DUP3 DUP1 SLOAD PUSH2 0x589 SWAP1 PUSH2 0x1275 JUMP JUMPDEST DUP1 ISZERO PUSH2 0x5D6 JUMPI DUP1 PUSH1 0x1F LT PUSH2 0x5AB JUMPI PUSH2 0x100 DUP1 DUP4 SLOAD DIV MUL DUP4 MSTORE SWAP2 PUSH1 0x20 ADD SWAP2 PUSH2 0x5D6 JUMP JUMPDEST DUP3 ADD SWAP2 SWAP1 PUSH1 0x0 MSTORE PUSH1 0x20 PUSH1 0x0 KECCAK256 SWAP1 JUMPDEST DUP2 SLOAD DUP2 MSTORE SWAP1 PUSH1 0x1 ADD SWAP1 PUSH1 0x20 ADD DUP1 DUP4 GT PUSH2 0x5B9 JUMPI DUP3 SWAP1 SUB PUSH1 0x1F AND DUP3 ADD SWAP2 JUMPDEST POP POP POP POP POP SWAP2 POP POP SWAP2 SWAP1 POP JUMP JUMPDEST PUSH1 0x1 PUSH1 0x0 SWAP1 SLOAD SWAP1 PUSH2 0x100 EXP SWAP1 DIV PUSH20 0xFFFFFFFFFFFFFFFFFFFFFFFFFFFFFFFFFFFFFFFF AND DUP2 JUMP JUMPDEST PUSH1 0x1 PUSH1 0x0 SWAP1 SLOAD SWAP1 PUSH2 0x100 EXP SWAP1 DIV PUSH20 0xFFFFFFFFFFFFFFFFFFFFFFFFFFFFFFFFFFFFFFFF AND PUSH20 0xFFFFFFFFFFFFFFFFFFFFFFFFFFFFFFFFFFFFFFFF AND CALLER PUSH20 0xFFFFFFFFFFFFFFFFFFFFFFFFFFFFFFFFFFFFFFFF AND EQ PUSH2 0x699 JUMPI PUSH1 0x40 MLOAD PUSH32 0x8C379A000000000000000000000000000000000000000000000000000000000 DUP2 MSTORE PUSH1 0x4 ADD PUSH2 0x690 SWAP1 PUSH2 0x10F8 JUMP JUMPDEST PUSH1 0x40 MLOAD DUP1 SWAP2 SUB SWAP1 REVERT JUMPDEST DUP1 PUSH1 0x0 DUP1 DUP3 PUSH20 0xFFFFFFFFFFFFFFFFFFFFFFFFFFFFFFFFFFFFFFFF AND PUSH20 0xFFFFFFFFFFFFFFFFFFFFFFFFFFFFFFFFFFFFFFFF AND DUP2 MSTORE PUSH1 0x20 ADD SWAP1 DUP2 MSTORE PUSH1 0x20 ADD PUSH1 0x0 KECCAK256 PUSH1 0x2 ADD PUSH1 0x0 SWAP1 SLOAD SWAP1 PUSH2 0x100 EXP SWAP1 DIV PUSH1 0xFF AND PUSH2 0x728 JUMPI PUSH1 0x40 MLOAD PUSH32 0x8C379A000000000000000000000000000000000000000000000000000000000 DUP2 MSTORE PUSH1 0x4 ADD PUSH2 0x71F SWAP1 PUSH2 0x1138 JUMP JUMPDEST PUSH1 0x40 MLOAD DUP1 SWAP2 SUB SWAP1 REVERT JUMPDEST PUSH1 0x0 DUP1 DUP4 PUSH20 0xFFFFFFFFFFFFFFFFFFFFFFFFFFFFFFFFFFFFFFFF AND PUSH20 0xFFFFFFFFFFFFFFFFFFFFFFFFFFFFFFFFFFFFFFFF AND DUP2 MSTORE PUSH1 0x20 ADD SWAP1 DUP2 MSTORE PUSH1 0x20 ADD PUSH1 0x0 KECCAK256 PUSH1 0x0 DUP1 DUP3 ADD PUSH1 0x0 PUSH2 0x777 SWAP2 SWAP1 PUSH2 0xB58 JUMP JUMPDEST PUSH1 0x1 DUP3 ADD PUSH1 0x0 PUSH2 0x787 SWAP2 SWAP1 PUSH2 0xB58 JUMP JUMPDEST PUSH1 0x2 DUP3 ADD PUSH1 0x0 PUSH2 0x100 EXP DUP2 SLOAD SWAP1 PUSH1 0xFF MUL NOT AND SWAP1 SSTORE POP POP DUP2 PUSH20 0xFFFFFFFFFFFFFFFFFFFFFFFFFFFFFFFFFFFFFFFF AND PUSH32 0xE9DCE8C992623CE791725B21E857E33248D1F190A25B5168313420EEBDAAE99D PUSH1 0x40 MLOAD PUSH1 0x40 MLOAD DUP1 SWAP2 SUB SWAP1 LOG2 POP POP JUMP JUMPDEST PUSH1 0x0 PUSH1 0x20 MSTORE DUP1 PUSH1 0x0 MSTORE PUSH1 0x40 PUSH1 0x0 KECCAK256 PUSH1 0x0 SWAP2 POP SWAP1 POP DUP1 PUSH1 0x0 ADD DUP1 SLOAD PUSH2 0x807 SWAP1 PUSH2 0x1275 JUMP JUMPDEST DUP1 PUSH1 0x1F ADD PUSH1 0x20 DUP1 SWAP2 DIV MUL PUSH1 0x20 ADD PUSH1 0x40 MLOAD SWAP1 DUP2 ADD PUSH1 0x40 MSTORE DUP1 SWAP3 SWAP2 SWAP1 DUP2 DUP2 MSTORE PUSH1 0x20 ADD DUP3 DUP1 SLOAD PUSH2 0x833 SWAP1 PUSH2 0x1275 JUMP JUMPDEST DUP1 ISZERO PUSH2 0x880 JUMPI DUP1 PUSH1 0x1F LT PUSH2 0x855 JUMPI PUSH2 0x100 DUP1 DUP4 SLOAD DIV MUL DUP4 MSTORE SWAP2 PUSH1 0x20 ADD SWAP2 PUSH2 0x880 JUMP JUMPDEST DUP3 ADD SWAP2 SWAP1 PUSH1 0x0 MSTORE PUSH1 0x20 PUSH1 0x0 KECCAK256 SWAP1 JUMPDEST DUP2 SLOAD DUP2 MSTORE SWAP1 PUSH1 0x1 ADD SWAP1 PUSH1 0x20 ADD DUP1 DUP4 GT PUSH2 0x863 JUMPI DUP3 SWAP1 SUB PUSH1 0x1F AND DUP3 ADD SWAP2 JUMPDEST POP POP POP POP POP SWAP1 DUP1 PUSH1 0x1 ADD DUP1 SLOAD PUSH2 0x895 SWAP1 PUSH2 0x1275 JUMP JUMPDEST DUP1 PUSH1 0x1F ADD PUSH1 0x20 DUP1 SWAP2 DIV MUL PUSH1 0x20 ADD PUSH1 0x40 MLOAD SWAP1 DUP2 ADD PUSH1 0x40 MSTORE DUP1 SWAP3 SWAP2 SWAP1 DUP2 DUP2 MSTORE PUSH1 0x20 ADD DUP3 DUP1 SLOAD PUSH2 0x8C1 SWAP1 PUSH2 0x1275 JUMP JUMPDEST DUP1 ISZERO PUSH2 0x90E JUMPI DUP1 PUSH1 0x1F LT PUSH2 0x8E3 JUMPI PUSH2 0x100 DUP1 DUP4 SLOAD DIV MUL DUP4 MSTORE SWAP2 PUSH1 0x20 ADD SWAP2 PUSH2 0x90E JUMP JUMPDEST DUP3 ADD SWAP2 SWAP1 PUSH1 0x0 MSTORE PUSH1 0x20 PUSH1 0x0 KECCAK256 SWAP1 JUMPDEST DUP2 SLOAD DUP2 MSTORE SWAP1 PUSH1 0x1 ADD SWAP1 PUSH1 0x20 ADD DUP1 DUP4 GT PUSH2 0x8F1 JUMPI DUP3 SWAP1 SUB PUSH1 0x1F AND DUP3 ADD SWAP2 JUMPDEST POP POP POP POP POP SWAP1 DUP1 PUSH1 0x2 ADD PUSH1 0x0 SWAP1 SLOAD SWAP1 PUSH2 0x100 EXP SWAP1 DIV PUSH1 0xFF AND SWAP1 POP DUP4 JUMP JUMPDEST PUSH1 0x1 PUSH1 0x0 SWAP1 SLOAD SWAP1 PUSH2 0x100 EXP SWAP1 DIV PUSH20 0xFFFFFFFFFFFFFFFFFFFFFFFFFFFFFFFFFFFFFFFF AND PUSH20 0xFFFFFFFFFFFFFFFFFFFFFFFFFFFFFFFFFFFFFFFF AND CALLER PUSH20 0xFFFFFFFFFFFFFFFFFFFFFFFFFFFFFFFFFFFFFFFF AND EQ PUSH2 0x9BB JUMPI PUSH1 0x40 MLOAD PUSH32 0x8C379A000000000000000000000000000000000000000000000000000000000 DUP2 MSTORE PUSH1 0x4 ADD PUSH2 0x9B2 SWAP1 PUSH2 0x10F8 JUMP JUMPDEST PUSH1 0x40 MLOAD DUP1 SWAP2 SUB SWAP1 REVERT JUMPDEST PUSH1 0x0 DUP1 DUP5 PUSH20 0xFFFFFFFFFFFFFFFFFFFFFFFFFFFFFFFFFFFFFFFF AND PUSH20 0xFFFFFFFFFFFFFFFFFFFFFFFFFFFFFFFFFFFFFFFF AND DUP2 MSTORE PUSH1 0x20 ADD SWAP1 DUP2 MSTORE PUSH1 0x20 ADD PUSH1 0x0 KECCAK256 PUSH1 0x2 ADD PUSH1 0x0 SWAP1 SLOAD SWAP1 PUSH2 0x100 EXP SWAP1 DIV PUSH1 0xFF AND ISZERO PUSH2 0xA4A JUMPI PUSH1 0x40 MLOAD PUSH32 0x8C379A000000000000000000000000000000000000000000000000000000000 DUP2 MSTORE PUSH1 0x4 ADD PUSH2 0xA41 SWAP1 PUSH2 0x1118 JUMP JUMPDEST PUSH1 0x40 MLOAD DUP1 SWAP2 SUB SWAP1 REVERT JUMPDEST PUSH1 0x40 MLOAD DUP1 PUSH1 0x60 ADD PUSH1 0x40 MSTORE DUP1 DUP4 DUP2 MSTORE PUSH1 0x20 ADD DUP3 DUP2 MSTORE PUSH1 0x20 ADD PUSH1 0x1 ISZERO ISZERO DUP2 MSTORE POP PUSH1 0x0 DUP1 DUP6 PUSH20 0xFFFFFFFFFFFFFFFFFFFFFFFFFFFFFFFFFFFFFFFF AND PUSH20 0xFFFFFFFFFFFFFFFFFFFFFFFFFFFFFFFFFFFFFFFF AND DUP2 MSTORE PUSH1 0x20 ADD SWAP1 DUP2 MSTORE PUSH1 0x20 ADD PUSH1 0x0 KECCAK256 PUSH1 0x0 DUP3 ADD MLOAD DUP2 PUSH1 0x0 ADD SWAP1 DUP1 MLOAD SWAP1 PUSH1 0x20 ADD SWAP1 PUSH2 0xAC2 SWAP3 SWAP2 SWAP1 PUSH2 0xB98 JUMP JUMPDEST POP PUSH1 0x20 DUP3 ADD MLOAD DUP2 PUSH1 0x1 ADD SWAP1 DUP1 MLOAD SWAP1 PUSH1 0x20 ADD SWAP1 PUSH2 0xADF SWAP3 SWAP2 SWAP1 PUSH2 0xB98 JUMP JUMPDEST POP PUSH1 0x40 DUP3 ADD MLOAD DUP2 PUSH1 0x2 ADD PUSH1 0x0 PUSH2 0x100 EXP DUP2 SLOAD DUP2 PUSH1 0xFF MUL NOT AND SWAP1 DUP4 ISZERO ISZERO MUL OR SWAP1 SSTORE POP SWAP1 POP POP DUP3 PUSH20 0xFFFFFFFFFFFFFFFFFFFFFFFFFFFFFFFFFFFFFFFF AND PUSH32 0x8EAB1DB142A914AFF8B515EEDB9177BD7EFFAEF6D714C41E30BDF15206778607 DUP4 DUP4 PUSH1 0x40 MLOAD PUSH2 0xB4B SWAP3 SWAP2 SWAP1 PUSH2 0x107C JUMP JUMPDEST PUSH1 0x40 MLOAD DUP1 SWAP2 SUB SWAP1 LOG2 POP POP POP JUMP JUMPDEST POP DUP1 SLOAD PUSH2 0xB64 SWAP1 PUSH2 0x1275 JUMP JUMPDEST PUSH1 0x0 DUP3 SSTORE DUP1 PUSH1 0x1F LT PUSH2 0xB76 JUMPI POP PUSH2 0xB95 JUMP JUMPDEST PUSH1 0x1F ADD PUSH1 0x20 SWAP1 DIV SWAP1 PUSH1 0x0 MSTORE PUSH1 0x20 PUSH1 0x0 KECCAK256 SWAP1 DUP2 ADD SWAP1 PUSH2 0xB94 SWAP2 SWAP1 PUSH2 0xC1E JUMP JUMPDEST JUMPDEST POP JUMP JUMPDEST DUP3 DUP1 SLOAD PUSH2 0xBA4 SWAP1 PUSH2 0x1275 JUMP JUMPDEST SWAP1 PUSH1 0x0 MSTORE PUSH1 0x20 PUSH1 0x0 KECCAK256 SWAP1 PUSH1 0x1F ADD PUSH1 0x20 SWAP1 DIV DUP2 ADD SWAP3 DUP3 PUSH2 0xBC6 JUMPI PUSH1 0x0 DUP6 SSTORE PUSH2 0xC0D JUMP JUMPDEST DUP3 PUSH1 0x1F LT PUSH2 0xBDF JUMPI DUP1 MLOAD PUSH1 0xFF NOT AND DUP4 DUP1 ADD OR DUP6 SSTORE PUSH2 0xC0D JUMP JUMPDEST DUP3 DUP1 ADD PUSH1 0x1 ADD DUP6 SSTORE DUP3 ISZERO PUSH2 0xC0D JUMPI SWAP2 DUP3 ADD JUMPDEST DUP3 DUP2 GT ISZERO PUSH2 0xC0C JUMPI DUP3 MLOAD DUP3 SSTORE SWAP2 PUSH1 0x20 ADD SWAP2 SWAP1 PUSH1 0x1 ADD SWAP1 PUSH2 0xBF1 JUMP JUMPDEST JUMPDEST POP SWAP1 POP PUSH2 0xC1A SWAP2 SWAP1 PUSH2 0xC1E JUMP JUMPDEST POP SWAP1 JUMP JUMPDEST JUMPDEST DUP1 DUP3 GT ISZERO PUSH2 0xC37 JUMPI PUSH1 0x0 DUP2 PUSH1 0x0 SWAP1 SSTORE POP PUSH1 0x1 ADD PUSH2 0xC1F JUMP JUMPDEST POP SWAP1 JUMP JUMPDEST PUSH1 0x0 PUSH2 0xC4E PUSH2 0xC49 DUP5 PUSH2 0x1189 JUMP JUMPDEST PUSH2 0x1158 JUMP JUMPDEST SWAP1 POP DUP3 DUP2 MSTORE PUSH1 0x20 DUP2 ADD DUP5 DUP5 DUP5 ADD GT ISZERO PUSH2 0xC66 JUMPI PUSH1 0x0 DUP1 REVERT JUMPDEST PUSH2 0xC71 DUP5 DUP3 DUP6 PUSH2 0x1233 JUMP JUMPDEST POP SWAP4 SWAP3 POP POP POP JUMP JUMPDEST PUSH1 0x0 DUP2 CALLDATALOAD SWAP1 POP PUSH2 0xC88 DUP2 PUSH2 0x1316 JUMP JUMPDEST SWAP3 SWAP2 POP POP JUMP JUMPDEST PUSH1 0x0 DUP3 PUSH1 0x1F DUP4 ADD SLT PUSH2 0xC9F JUMPI PUSH1 0x0 DUP1 REVERT JUMPDEST DUP2 CALLDATALOAD PUSH2 0xCAF DUP5 DUP3 PUSH1 0x20 DUP7 ADD PUSH2 0xC3B JUMP JUMPDEST SWAP2 POP POP SWAP3 SWAP2 POP POP JUMP JUMPDEST PUSH1 0x0 PUSH1 0x20 DUP3 DUP5 SUB SLT ISZERO PUSH2 0xCCA JUMPI PUSH1 0x0 DUP1 REVERT JUMPDEST PUSH1 0x0 PUSH2 0xCD8 DUP5 DUP3 DUP6 ADD PUSH2 0xC79 JUMP JUMPDEST SWAP2 POP POP SWAP3 SWAP2 POP POP JUMP JUMPDEST PUSH1 0x0 DUP1 PUSH1 0x40 DUP4 DUP6 SUB SLT ISZERO PUSH2 0xCF4 JUMPI PUSH1 0x0 DUP1 REVERT JUMPDEST PUSH1 0x0 PUSH2 0xD02 DUP6 DUP3 DUP7 ADD PUSH2 0xC79 JUMP JUMPDEST SWAP3 POP POP PUSH1 0x20 DUP4 ADD CALLDATALOAD PUSH8 0xFFFFFFFFFFFFFFFF DUP2 GT ISZERO PUSH2 0xD1F JUMPI PUSH1 0x0 DUP1 REVERT JUMPDEST PUSH2 0xD2B DUP6 DUP3 DUP7 ADD PUSH2 0xC8E JUMP JUMPDEST SWAP2 POP POP SWAP3 POP SWAP3 SWAP1 POP JUMP JUMPDEST PUSH1 0x0 DUP1 PUSH1 0x0 PUSH1 0x60 DUP5 DUP7 SUB SLT ISZERO PUSH2 0xD4A JUMPI PUSH1 0x0 DUP1 REVERT JUMPDEST PUSH1 0x0 PUSH2 0xD58 DUP7 DUP3 DUP8 ADD PUSH2 0xC79 JUMP JUMPDEST SWAP4 POP POP PUSH1 0x20 DUP5 ADD CALLDATALOAD PUSH8 0xFFFFFFFFFFFFFFFF DUP2 GT ISZERO PUSH2 0xD75 JUMPI PUSH1 0x0 DUP1 REVERT JUMPDEST PUSH2 0xD81 DUP7 DUP3 DUP8 ADD PUSH2 0xC8E JUMP JUMPDEST SWAP3 POP POP PUSH1 0x40 DUP5 ADD CALLDATALOAD PUSH8 0xFFFFFFFFFFFFFFFF DUP2 GT ISZERO PUSH2 0xD9E JUMPI PUSH1 0x0 DUP1 REVERT JUMPDEST PUSH2 0xDAA DUP7 DUP3 DUP8 ADD PUSH2 0xC8E JUMP JUMPDEST SWAP2 POP POP SWAP3 POP SWAP3 POP SWAP3 JUMP JUMPDEST PUSH2 0xDBD DUP2 PUSH2 0x11F5 JUMP JUMPDEST DUP3 MSTORE POP POP JUMP JUMPDEST PUSH2 0xDCC DUP2 PUSH2 0x1207 JUMP JUMPDEST DUP3 MSTORE POP POP JUMP JUMPDEST PUSH1 0x0 PUSH2 0xDDD DUP3 PUSH2 0x11CE JUMP JUMPDEST PUSH2 0xDE7 DUP2 DUP6 PUSH2 0x11D9 JUMP JUMPDEST SWAP4 POP PUSH2 0xDF7 DUP2 DUP6 PUSH1 0x20 DUP7 ADD PUSH2 0x1242 JUMP JUMPDEST PUSH2 0xE00 DUP2 PUSH2 0x1305 JUMP JUMPDEST DUP5 ADD SWAP2 POP POP SWAP3 SWAP2 POP POP JUMP JUMPDEST PUSH1 0x0 PUSH2 0xE16 DUP3 PUSH2 0x11CE JUMP JUMPDEST PUSH2 0xE20 DUP2 DUP6 PUSH2 0x11EA JUMP JUMPDEST SWAP4 POP PUSH2 0xE30 DUP2 DUP6 PUSH1 0x20 DUP7 ADD PUSH2 0x1242 JUMP JUMPDEST DUP1 DUP5 ADD SWAP2 POP POP SWAP3 SWAP2 POP POP JUMP JUMPDEST PUSH1 0x0 DUP2 SLOAD PUSH2 0xE49 DUP2 PUSH2 0x1275 JUMP JUMPDEST PUSH2 0xE53 DUP2 DUP7 PUSH2 0x11EA JUMP JUMPDEST SWAP5 POP PUSH1 0x1 DUP3 AND PUSH1 0x0 DUP2 EQ PUSH2 0xE6E JUMPI PUSH1 0x1 DUP2 EQ PUSH2 0xE7F JUMPI PUSH2 0xEB2 JUMP JUMPDEST PUSH1 0xFF NOT DUP4 AND DUP7 MSTORE DUP2 DUP7 ADD SWAP4 POP PUSH2 0xEB2 JUMP JUMPDEST PUSH2 0xE88 DUP6 PUSH2 0x11B9 JUMP JUMPDEST PUSH1 0x0 JUMPDEST DUP4 DUP2 LT ISZERO PUSH2 0xEAA JUMPI DUP2 SLOAD DUP2 DUP10 ADD MSTORE PUSH1 0x1 DUP3 ADD SWAP2 POP PUSH1 0x20 DUP2 ADD SWAP1 POP PUSH2 0xE8B JUMP JUMPDEST DUP4 DUP9 ADD SWAP6 POP POP POP JUMPDEST POP POP POP SWAP3 SWAP2 POP POP JUMP JUMPDEST PUSH1 0x0 PUSH2 0xEC8 PUSH1 0x21 DUP4 PUSH2 0x11D9 JUMP JUMPDEST SWAP2 POP PUSH32 0x4F6E6C79206F776E65722063616E2063616C6C20746869732066756E6374696F PUSH1 0x0 DUP4 ADD MSTORE PUSH32 0x6E00000000000000000000000000000000000000000000000000000000000000 PUSH1 0x20 DUP4 ADD MSTORE PUSH1 0x40 DUP3 ADD SWAP1 POP SWAP2 SWAP1 POP JUMP JUMPDEST PUSH1 0x0 PUSH2 0xF2E PUSH1 0x13 DUP4 PUSH2 0x11D9 JUMP JUMPDEST SWAP2 POP PUSH32 0x5573657220616C72656164792065786973747300000000000000000000000000 PUSH1 0x0 DUP4 ADD MSTORE PUSH1 0x20 DUP3 ADD SWAP1 POP SWAP2 SWAP1 POP JUMP JUMPDEST PUSH1 0x0 PUSH2 0xF6E PUSH1 0x13 DUP4 PUSH2 0x11D9 JUMP JUMPDEST SWAP2 POP PUSH32 0x5573657220646F6573206E6F7420657869737400000000000000000000000000 PUSH1 0x0 DUP4 ADD MSTORE PUSH1 0x20 DUP3 ADD SWAP1 POP SWAP2 SWAP1 POP JUMP JUMPDEST PUSH1 0x0 PUSH2 0xFAE PUSH1 0x5 DUP4 PUSH2 0x11EA JUMP JUMPDEST SWAP2 POP PUSH32 0x61646D696E000000000000000000000000000000000000000000000000000000 PUSH1 0x0 DUP4 ADD MSTORE PUSH1 0x5 DUP3 ADD SWAP1 POP SWAP2 SWAP1 POP JUMP JUMPDEST PUSH1 0x0 PUSH2 0xFED DUP3 DUP5 PUSH2 0xE0B JUMP JUMPDEST SWAP2 POP DUP2 SWAP1 POP SWAP3 SWAP2 POP POP JUMP JUMPDEST PUSH1 0x0 PUSH2 0x1004 DUP3 DUP5 PUSH2 0xE3C JUMP JUMPDEST SWAP2 POP DUP2 SWAP1 POP SWAP3 SWAP2 POP POP JUMP JUMPDEST PUSH1 0x0 PUSH2 0x101A DUP3 PUSH2 0xFA1 JUMP JUMPDEST SWAP2 POP DUP2 SWAP1 POP SWAP2 SWAP1 POP JUMP JUMPDEST PUSH1 0x0 PUSH1 0x20 DUP3 ADD SWAP1 POP PUSH2 0x1039 PUSH1 0x0 DUP4 ADD DUP5 PUSH2 0xDB4 JUMP JUMPDEST SWAP3 SWAP2 POP POP JUMP JUMPDEST PUSH1 0x0 PUSH1 0x20 DUP3 ADD SWAP1 POP PUSH2 0x1054 PUSH1 0x0 DUP4 ADD DUP5 PUSH2 0xDC3 JUMP JUMPDEST SWAP3 SWAP2 POP POP JUMP JUMPDEST PUSH1 0x0 PUSH1 0x20 DUP3 ADD SWAP1 POP DUP2 DUP2 SUB PUSH1 0x0 DUP4 ADD MSTORE PUSH2 0x1074 DUP2 DUP5 PUSH2 0xDD2 JUMP JUMPDEST SWAP1 POP SWAP3 SWAP2 POP POP JUMP JUMPDEST PUSH1 0x0 PUSH1 0x40 DUP3 ADD SWAP1 POP DUP2 DUP2 SUB PUSH1 0x0 DUP4 ADD MSTORE PUSH2 0x1096 DUP2 DUP6 PUSH2 0xDD2 JUMP JUMPDEST SWAP1 POP DUP2 DUP2 SUB PUSH1 0x20 DUP4 ADD MSTORE PUSH2 0x10AA DUP2 DUP5 PUSH2 0xDD2 JUMP JUMPDEST SWAP1 POP SWAP4 SWAP3 POP POP POP JUMP JUMPDEST PUSH1 0x0 PUSH1 0x60 DUP3 ADD SWAP1 POP DUP2 DUP2 SUB PUSH1 0x0 DUP4 ADD MSTORE PUSH2 0x10CD DUP2 DUP7 PUSH2 0xDD2 JUMP JUMPDEST SWAP1 POP DUP2 DUP2 SUB PUSH1 0x20 DUP4 ADD MSTORE PUSH2 0x10E1 DUP2 DUP6 PUSH2 0xDD2 JUMP JUMPDEST SWAP1 POP PUSH2 0x10F0 PUSH1 0x40 DUP4 ADD DUP5 PUSH2 0xDC3 JUMP JUMPDEST SWAP5 SWAP4 POP POP POP POP JUMP JUMPDEST PUSH1 0x0 PUSH1 0x20 DUP3 ADD SWAP1 POP DUP2 DUP2 SUB PUSH1 0x0 DUP4 ADD MSTORE PUSH2 0x1111 DUP2 PUSH2 0xEBB JUMP JUMPDEST SWAP1 POP SWAP2 SWAP1 POP JUMP JUMPDEST PUSH1 0x0 PUSH1 0x20 DUP3 ADD SWAP1 POP DUP2 DUP2 SUB PUSH1 0x0 DUP4 ADD MSTORE PUSH2 0x1131 DUP2 PUSH2 0xF21 JUMP JUMPDEST SWAP1 POP SWAP2 SWAP1 POP JUMP JUMPDEST PUSH1 0x0 PUSH1 0x20 DUP3 ADD SWAP1 POP DUP2 DUP2 SUB PUSH1 0x0 DUP4 ADD MSTORE PUSH2 0x1151 DUP2 PUSH2 0xF61 JUMP JUMPDEST SWAP1 POP SWAP2 SWAP1 POP JUMP JUMPDEST PUSH1 0x0 PUSH1 0x40 MLOAD SWAP1 POP DUP2 DUP2 ADD DUP2 DUP2 LT PUSH8 0xFFFFFFFFFFFFFFFF DUP3 GT OR ISZERO PUSH2 0x117F JUMPI PUSH2 0x117E PUSH2 0x12D6 JUMP JUMPDEST JUMPDEST DUP1 PUSH1 0x40 MSTORE POP SWAP2 SWAP1 POP JUMP JUMPDEST PUSH1 0x0 PUSH8 0xFFFFFFFFFFFFFFFF DUP3 GT ISZERO PUSH2 0x11A4 JUMPI PUSH2 0x11A3 PUSH2 0x12D6 JUMP JUMPDEST JUMPDEST PUSH1 0x1F NOT PUSH1 0x1F DUP4 ADD AND SWAP1 POP PUSH1 0x20 DUP2 ADD SWAP1 POP SWAP2 SWAP1 POP JUMP JUMPDEST PUSH1 0x0 DUP2 SWAP1 POP DUP2 PUSH1 0x0 MSTORE PUSH1 0x20 PUSH1 0x0 KECCAK256 SWAP1 POP SWAP2 SWAP1 POP JUMP JUMPDEST PUSH1 0x0 DUP2 MLOAD SWAP1 POP SWAP2 SWAP1 POP JUMP JUMPDEST PUSH1 0x0 DUP3 DUP3 MSTORE PUSH1 0x20 DUP3 ADD SWAP1 POP SWAP3 SWAP2 POP POP JUMP JUMPDEST PUSH1 0x0 DUP2 SWAP1 POP SWAP3 SWAP2 POP POP JUMP JUMPDEST PUSH1 0x0 PUSH2 0x1200 DUP3 PUSH2 0x1213 JUMP JUMPDEST SWAP1 POP SWAP2 SWAP1 POP JUMP JUMPDEST PUSH1 0x0 DUP2 ISZERO ISZERO SWAP1 POP SWAP2 SWAP1 POP JUMP JUMPDEST PUSH1 0x0 PUSH20 0xFFFFFFFFFFFFFFFFFFFFFFFFFFFFFFFFFFFFFFFF DUP3 AND SWAP1 POP SWAP2 SWAP1 POP JUMP JUMPDEST DUP3 DUP2 DUP4 CALLDATACOPY PUSH1 0x0 DUP4 DUP4 ADD MSTORE POP POP POP JUMP JUMPDEST PUSH1 0x0 JUMPDEST DUP4 DUP2 LT ISZERO PUSH2 0x1260 JUMPI DUP1 DUP3 ADD MLOAD DUP2 DUP5 ADD MSTORE PUSH1 0x20 DUP2 ADD SWAP1 POP PUSH2 0x1245 JUMP JUMPDEST DUP4 DUP2 GT ISZERO PUSH2 0x126F JUMPI PUSH1 0x0 DUP5 DUP5 ADD MSTORE JUMPDEST POP POP POP POP JUMP JUMPDEST PUSH1 0x0 PUSH1 0x2 DUP3 DIV SWAP1 POP PUSH1 0x1 DUP3 AND DUP1 PUSH2 0x128D JUMPI PUSH1 0x7F DUP3 AND SWAP2 POP JUMPDEST PUSH1 0x20 DUP3 LT DUP2 EQ ISZERO PUSH2 0x12A1 JUMPI PUSH2 0x12A0 PUSH2 0x12A7 JUMP JUMPDEST JUMPDEST POP SWAP2 SWAP1 POP JUMP JUMPDEST PUSH32 0x4E487B7100000000000000000000000000000000000000000000000000000000 PUSH1 0x0 MSTORE PUSH1 0x22 PUSH1 0x4 MSTORE PUSH1 0x24 PUSH1 0x0 REVERT JUMPDEST PUSH32 0x4E487B7100000000000000000000000000000000000000000000000000000000 PUSH1 0x0 MSTORE PUSH1 0x41 PUSH1 0x4 MSTORE PUSH1 0x24 PUSH1 0x0 REVERT JUMPDEST PUSH1 0x0 PUSH1 0x1F NOT PUSH1 0x1F DUP4 ADD AND SWAP1 POP SWAP2 SWAP1 POP JUMP JUMPDEST PUSH2 0x131F DUP2 PUSH2 0x11F5 JUMP JUMPDEST DUP2 EQ PUSH2 0x132A JUMPI PUSH1 0x0 DUP1 REVERT JUMPDEST POP JUMP INVALID LOG2 PUSH5 0x6970667358 0x22 SLT KECCAK256 DUP14 PUSH12 0xBF6F8443145A6BEE68178731 LOG0 0xC4 SHR BALANCE PUSH18 0xB4D773D924E034C9F91A17092E64736F6C63 NUMBER STOP ADDMOD STOP STOP CALLER "
				},
				"gasEstimates": {
					"creation": {
						"codeDepositCost": "992600",
						"executionCost": "21900",
						"totalCost": "1014500"
					},
					"external": {
						"addUser(address,string,string)": "infinite",
						"getUserRole(address)": "infinite",
						"isAuthorized(address,string)": "infinite",
						"isUserInRole(address,string)": "infinite",
						"owner()": "1214",
						"removeUser(address)": "infinite",
						"users(address)": "infinite"
					}
				},
				"methodIdentifiers": {
					"addUser(address,string,string)": "d7554a68",
					"getUserRole(address)": "27820851",
					"isAuthorized(address,string)": "19c3026f",
					"isUserInRole(address,string)": "0f0aff1b",
					"owner()": "8da5cb5b",
					"removeUser(address)": "98575188",
					"users(address)": "a87430ba"
				}
			},
			"storageLayout": {
				"storage": [
					{
						"astId": 13,
						"contract": "Authentification.sol:Authentification",
						"label": "users",
						"offset": 0,
						"slot": "0",
						"type": "t_mapping(t_address,t_struct(User)8_storage)"
					},
					{
						"astId": 15,
						"contract": "Authentification.sol:Authentification",
						"label": "owner",
						"offset": 0,
						"slot": "1",
						"type": "t_address"
					}
				],
				"types": {
					"t_address": {
						"encoding": "inplace",
						"label": "address",
						"numberOfBytes": "20"
					},
					"t_bool": {
						"encoding": "inplace",
						"label": "bool",
						"numberOfBytes": "1"
					},
					"t_mapping(t_address,t_struct(User)8_storage)": {
						"encoding": "mapping",
						"key": "t_address",
						"label": "mapping(address => struct Authentification.User)",
						"numberOfBytes": "32",
						"value": "t_struct(User)8_storage"
					},
					"t_string_storage": {
						"encoding": "bytes",
						"label": "string",
						"numberOfBytes": "32"
					},
					"t_struct(User)8_storage": {
						"encoding": "inplace",
						"label": "struct Authentification.User",
						"members": [
							{
								"astId": 3,
								"contract": "Authentification.sol:Authentification",
								"label": "role",
								"offset": 0,
								"slot": "0",
								"type": "t_string_storage"
							},
							{
								"astId": 5,
								"contract": "Authentification.sol:Authentification",
								"label": "name",
								"offset": 0,
								"slot": "1",
								"type": "t_string_storage"
							},
							{
								"astId": 7,
								"contract": "Authentification.sol:Authentification",
								"label": "exists",
								"offset": 0,
								"slot": "2",
								"type": "t_bool"
							}
						],
						"numberOfBytes": "96"
					}
				}
			},
			"userdoc": {
				"kind": "user",
				"methods": {},
				"version": 1
			}
		}
	}
}